:100000000C942A000C94010A0C94AB0A0C9447003F
:100010000C9447000C9447000C9470090C943D0913
:100020000C9447000C940A090C94F1070C94BE0739
:100030000C9447000C9447000C9447000C94470024
:100040000C94D50F0C9447000C9447000C94470077
:100050000C94470011241FBECFE5D8E0DEBFCDBF12
:1000600011E0A0E6B0E0ECE8F5E302C005900D92E7
:10007000A837B107D9F711E0A8E7B1E001C01D9298
:10008000A438B107E1F70E94451A0C94C41A0C94E5
:100090000000EF92FF920F931F937B018C0120E0F1
:1000A00030E040E05FE40E94490388238CF0C801FF
:1000B000B70120E030E040E05FE40E94C1010E940F
:1000C00007049B01AC01205030404040504806C01E
:1000D000C801B7010E9407049B01AC01B901CA0124
:1000E0001F910F91FF90EF900895A0E0B0E0EBE733
:1000F000F0E00C948D1ADC012B01FA019C919230F6
:1001000008F439C1EB018881823008F433C194309E
:1001100069F4843009F02FC111969C91119789815F
:10012000981709F428C1A0E6B0E025C1843009F48D
:1001300021C18230A9F4923009F01DC19A01AD01AC
:1001400088E0EA010990AE01E90109929E0181501F
:10015000C1F7E201898111969C918923818308C1AD
:10016000923009F407C112962D903C901397EB0141
:100170008A819B811496AD90BD90CD90DC901797AD
:10018000EC80FD800E811F819101281B390BB90184
:1001900037FF04C066277727621B730B6032710537
:1001A0000CF061C0121613066CF537014801062EDB
:1001B00004C096948794779467940A94D2F721E0C8
:1001C00030E040E050E004C0220F331F441F551FB1
:1001D0006A95D2F721503040404050402E213F21B7
:1001E00040235123211531054105510521F021E01E
:1001F00030E040E050E079018A01E628F72808293C
:1002000019293CC0232BD1F1260E371E350146019A
:10021000062E04C096948794779467940A94D2F734
:1002200021E030E040E050E004C0220F331F441FC3
:10023000551F6A95D2F721503040404050402A2146
:100240003B214C215D21211531054105510521F04E
:1002500021E030E040E050E059016A01A628B728CB
:10026000C828D9280BC0821593052CF01C01AA249C
:10027000BB24650103C0EE24FF24870111969C91E5
:10028000D20111968C91981709F445C0992339F041
:10029000A80197012A193B094C095D0906C0A6016E
:1002A00095012E193F09400B510B57FD08C01182D3
:1002B0003382228224833583468357831DC081E0A5
:1002C00081833382228288279927DC01821B930B4A
:1002D000A40BB50B84839583A683B7830DC0220F2F
:1002E000331F441F551F24833583468357838281E0
:1002F000938101979383828324813581468157813D
:10030000DA01C9010197A109B1098F5F9F4FAF4F72
:10031000BF4328F30BC0918333822282EA0CFB1C7B
:100320000C1D1D1DE482F5820683178383E0808304
:10033000248135814681578157FF1AC0C901AA27F8
:1003400097FDA095BA2F81709070A070B0705695EF
:10035000479537952795822B932BA42BB52B848318
:100360009583A683B7838281938101969383828349
:10037000DF0101C0D201CD01CDB7DEB7E2E10C94BF
:10038000A91AA0E2B0E0E7ECF1E00C94991A6983B5
:100390007A838B839C832D833E834F835887E9E048
:1003A000EE2EF12CEC0EFD1ECE010196B7010E943F
:1003B0007F058E010F5E1F4FCE010596B8010E948A
:1003C0007F058A8991E089278A8BC701B801AE0130
:1003D000475E5F4F0E9475000E94AA04A096E6E067
:1003E0000C94B51AA0E2B0E0E8EFF1E00C94991A91
:1003F00069837A838B839C832D833E834F835887C5
:10040000F9E0EF2EF12CEC0EFD1ECE010196B701A6
:100410000E947F058E010F5E1F4FCE010596B80129
:100420000E947F05C701B801AE01475E5F4F0E9481
:1004300075000E94AA04A096E6E00C94B51AA0E20A
:10044000B0E0E5E2F2E00C948D1A69837A838B8345
:100450009C832D833E834F835887CE010196BE0136
:10046000675F7F4F0E947F05CE010596BE016F5EDC
:100470007F4F0E947F059985923088F0898982306C
:10048000C8F0943019F4823051F404C0843029F457
:10049000923081F480E690E0C6C0923049F420E0CA
:1004A0009A858A89981321E02A87CE010996BBC0D4
:1004B000823049F420E09A858A89981321E02A8BBA
:1004C000CE014196B0C02D843E844F8458886D88FB
:1004D0007E888F88988CEE24FF248701AA24BB2471
:1004E000650140E050E060E070E0E0E0F0E0C10174
:1004F00081709070892BE9F0E60CF71C081D191D1E
:100500009A01AB012A0D3B1D4C1D5D1D80E090E062
:10051000A0E0B0E0E614F7040805190520F481E036
:1005200090E0A0E0B0E0BA01A901480F591F6A1F8E
:100530007B1FAA0CBB1CCC1CDD1C97FE08C081E0F5
:1005400090E0A0E0B0E0A82AB92ACA2ADB2A3196B6
:10055000E032F10549F0660C771C881C991C569412
:10056000479437942794C3CFFA85EA892B893C892D
:100570008B859C85280F391F2E5F3F4F17C0CA01FE
:1005800081709070892B61F016950795F794E79428
:1005900080E090E0A0E0B0E8E82AF92A0A2B1B2BC3
:1005A00076956795579547952F5F3F4F77FDE7CF36
:1005B0000CC0440F551F661F771F17FD4160EE0CDE
:1005C000FF1C001F111F21503040403090E05907A0
:1005D00090E0690790E4790760F32B8F3C8FDB0193
:1005E000CA018F779070A070B07080349105A1051A
:1005F000B10561F447FD0AC0E114F10401051105DC
:1006000029F0405C5F4F6F4F7F4F40781A8EFE1786
:1006100011F081E08A8F4D8F5E8F6F8F78A383E01A
:10062000898FCE0149960E94AA04A096E2E10C941B
:10063000A91AA8E1B0E0EFE1F3E00C94991A6983FC
:100640007A838B839C832D833E834F83588789E0F5
:10065000E82EF12CEC0EFD1ECE010196B7010E9492
:100660007F058E010F5E1F4FCE010596B8010E94D7
:100670007F058985823040F08989823028F0C70162
:10068000B8010E94F70501C08FEF6896E6E00C9470
:10069000B51AA8E1B0E0EFE4F3E00C94991A69838D
:1006A0007A838B839C832D833E834F83588789E095
:1006B000E82EF12CEC0EFD1ECE010196B7010E9432
:1006C0007F058E010F5E1F4FCE010596B8010E9477
:1006D0007F058985823040F08989823028F0C70102
:1006E000B8010E94F70501C08FEF6896E6E00C9410
:1006F000B51AA8E1B0E0EFE7F3E00C94991A69832A
:100700007A838B839C832D833E834F83588789E034
:10071000E82EF12CEC0EFD1ECE010196B7010E94D1
:100720007F058E010F5E1F4FCE010596B8010E9416
:100730007F058985823040F08989823028F0C701A1
:10074000B8010E94F70501C081E06896E6E00C94CC
:10075000B51AA8E0B0E0EFEAF3E00C94961A9B011A
:10076000AC0183E08983DA01C9018827B7FD83954D
:100770009927AA27BB27B82E211531054105510518
:1007800019F482E089833AC08823A9F0203080E000
:10079000380780E0480780E8580729F460E070E0F7
:1007A00080E09FEC30C0EE24FF248701E21AF30AB8
:1007B000040B150B02C079018A018EE1C82ED12CE1
:1007C000DC82CB82ED82FE820F831887C801B701DD
:1007D0000E945B0401971816190684F4082E04C0C1
:1007E000EE0CFF1C001F111F0A94D2F7ED82FE824F
:1007F0000F831887C81AD90ADC82CB82BA82CE014D
:1008000001960E94AA042896E9E00C94B21AACE082
:10081000B0E0EDE0F4E00C949D1A69837A838B8359
:100820009C83CE010196BE016B5F7F4F0E947F05C6
:100830008D81823061F1823050F1843021F48E81DB
:10084000882351F12EC02F81388537FD20C06E815D
:100850002F3131051CF06623F9F023C08EE190E0C2
:10086000821B930B29853A854B855C8504C0569580
:100870004795379527958A95D2F76623B1F050951D
:100880004095309521953F4F4F4F5F4F0EC020E070
:1008900030E040E050E009C02FEF3FEF4FEF5FE75F
:1008A00004C020E030E040E050E8B901CA012C96D5
:1008B000E2E00C94B91AEF92FF920F931F937B0121
:1008C0008C0180E0E81680E0F80681E0080780E00F
:1008D000180788F48FEFE816F1040105110531F0CF
:1008E00028F088E090E0A0E0B0E017C080E090E061
:1008F000A0E0B0E012C080E0E81680E0F80680E0FA
:10090000080781E0180728F088E190E0A0E0B0E057
:1009100004C080E190E0A0E0B0E020E230E040E000
:1009200050E0281B390B4A0B5B0B04C0169507954A
:10093000F794E7948A95D2F7F701E859FF4F808141
:10094000281B310941095109C9011F910F91FF90DD
:10095000EF900895DF92EF92FF920F931F93FC01A7
:10096000E480F58006811781D1808081823048F44F
:1009700080E090E0A0E1B0E0E82AF92A0A2B1B2BE6
:10098000A5C0843009F49FC0823021F4EE24FF24F6
:10099000870105C0E114F1040105110519F4E0E037
:1009A000F0E096C0628173819FEF623879070CF0A6
:1009B0005BC022E83FEF261B370B2A3131052CF0B4
:1009C00020E030E040E050E02AC0B801A701022E4C
:1009D00004C076956795579547950A94D2F781E0BC
:1009E00090E0A0E0B0E004C0880F991FAA1FBB1FD1
:1009F0002A95D2F70197A109B1098E219F21A02341
:100A0000B1230097A105B10521F081E090E0A0E0BD
:100A1000B0E09A01AB01282B392B4A2B5B2BDA0172
:100A2000C9018F779070A070B07080349105A105D6
:100A3000B10539F427FF09C0205C3F4F4F4F5F4F8E
:100A400004C0215C3F4F4F4F5F4FE0E0F0E02030AB
:100A5000A0E03A07A0E04A07A0E45A0710F0E1E05E
:100A6000F0E079018A0127C06038710564F5FB0167
:100A7000E158FF4FD801C7018F779070A070B07018
:100A800080349105A105B10539F4E7FE0DC080E47D
:100A900090E0A0E0B0E004C08FE390E0A0E0B0E020
:100AA000E80EF91E0A1F1B1F17FF05C016950795B4
:100AB000F794E794319687E016950795F794E794B5
:100AC0008A95D1F705C0EE24FF248701EFEFF0E00F
:100AD0006E2F679566276795902F9F77D794DD24B3
:100AE000D7948E2F8695492F462B582F5D29B70115
:100AF000CA011F910F91FF90EF90DF900895FC01C4
:100B0000DB01408151812281622F6F7770E0221FCB
:100B10002227221F9381892F880F822B282F30E0D4
:100B2000991F9927991F11969C93119721153105AB
:100B3000A9F5411551056105710511F482E037C031
:100B400082E89FEF13969C938E9312979A01AB01C4
:100B500067E0220F331F441F551F6A95D1F783E0CA
:100B60008C930DC0220F331F441F551F12968D9179
:100B70009C911397019713969C938E931297203014
:100B800080E0380780E0480780E4580758F314965F
:100B90002D933D934D935C93179708952F3F310507
:100BA00079F4411551056105710519F484E08C93C0
:100BB000089564FF03C081E08C9312C01C9210C0A2
:100BC0002F57304013963C932E93129783E08C93CB
:100BD00087E0440F551F661F771F8A95D1F7706411
:100BE00014964D935D936D937C93179708951F937F
:100BF000DC01FB019C91923008F447C08081823077
:100C000008F443C0943051F411961C91843099F546
:100C10008181682F70E0611B71093FC0843021F031
:100C2000923031F48230B9F18181882389F12DC06D
:100C300011961C9111978230F1F081811817D9F427
:100C400012962D913C91139782819381821793077D
:100C500094F028173907BCF014968D919D910D9052
:100C6000BC91A02D248135814681578128173907F1
:100C70004A075B0718F4112341F00AC08217930753
:100C8000A407B50740F4112319F061E070E005C036
:100C90006FEF7FEF02C060E070E0CB011F9108951D
:100CA000DF93CF9300D000D00F92CDB7DEB79D83F6
:100CB0008C831B821A828C819D81CC01A0E0B0E0E4
:100CC000880F991FAA1FBB1F880F991FAA1FBB1F40
:100CD000880F991FAA1FBB1F880F991FAA1FBB1F30
:100CE0009C01AD0180E092E1AAE7B0E0BC01CD013A
:100CF0000E946B1ADA01C90101979B838A83E9E29A
:100D0000F0E08A818083E0E4F0E01082ABE2B0E0C2
:100D1000EBE2F0E080818D7F8C93ABE2B0E0EBE220
:100D2000F0E080818E7F8C931982AAE2B0E0EAE243
:100D3000F0E080818B7F8C938981846089838981B5
:100D40008260898389818068898389818F7B898397
:100D500089818F7D898389818F7E89838981877F3E
:100D6000898389818E7F8983AAE2B0E0EAE2F0E09C
:100D7000808180618C93AAE2B0E0EAE2F0E08081B9
:100D800088608C93E0E4F0E0898180830F900F907D
:100D90000F900F900F90CF91DF910895DF93CF9335
:100DA0000F92CDB7DEB78983EBE2F0E080818295C8
:100DB00086958770882F90E0817090700097A1F3DE
:100DC000ECE2F0E0898180830F90CF91DF9108956C
:100DD000DF93CF93CDB7DEB7EBE2F0E080818823DD
:100DE000DCF7ECE2F0E08081CF91DF910895DF93B2
:100DF000CF93CDB7DEB7A3E5B0E0E3E5F0E08081C7
:100E000080648C93A3E5B0E0E3E5F0E08081877F28
:100E10008C93A3E5B0E0E3E5F0E0808184608C93FF
:100E2000A3E5B0E0E3E5F0E080818D7F8C93A3E55E
:100E3000B0E0E3E5F0E080818E7F8C93CF91DF918D
:100E40000895DF93CF93CDB7DEB7A3E5B0E0E3E538
:100E5000F0E0808180628C93A3E5B0E0E3E5F0E010
:100E600080818F7E8C93CF91DF910895DF93CF9314
:100E7000CDB7DEB7A9E5B0E0E9E5F0E080818D7F90
:100E80008C93A9E5B0E0E9E5F0E080818E7F8C935A
:100E9000CF91DF910895DF93CF930F92CDB7DEB757
:100EA0008983E2E5F0E0898180830F90CF91DF9123
:100EB0000895CF92DF92EF92FF920F931F93DF93EB
:100EC000CF930F92CDB7DEB789830F2EFCE5CF2EDF
:100ED000DD24F02D8981882F90E0AA2797FDA09529
:100EE000BA2FBC01CD010E94A903DC01CB01BC01DA
:100EF000CD0123E333E343E251E40E941F02DC010E
:100F0000CB017C018D018981882F90E0AA2797FD74
:100F1000A095BA2FBC01CD010E94A9039B01AC0191
:100F2000C801B7010E941F02DC01CB01BC01CD0149
:100F30000E944900DC01CB01F60180830F90CF9124
:100F4000DF911F910F91FF90EF90DF90CF90089568
:100F5000DF93CF9300D0CDB7DEB79A8389838981A1
:100F60009A81009731F089819A8190937B018093D7
:100F70007A010F900F90CF91DF9108951F920F92F9
:100F80000FB60F9211242F933F934F935F936F935C
:100F90007F938F939F93AF93BF93EF93FF93DF93D1
:100FA000CF93CDB7DEB7809178019091790100970A
:100FB00029F0E0917801F09179010995CF91DF91C5
:100FC000FF91EF91BF91AF919F918F917F916F9121
:100FD0005F914F913F912F910F900FBE0F901F90F7
:100FE00018951F920F920FB60F9211242F933F93D3
:100FF0004F935F936F937F938F939F93AF93BF9321
:10100000EF93FF93DF93CF93CDB7DEB780917A0153
:1010100090917B01009729F0E0917A01F0917B019A
:101020000995CF91DF91FF91EF91BF91AF919F9182
:101030008F917F916F915F914F913F912F910F9081
:101040000FBE0F901F901895DF93CF93CDB7DEB7EB
:10105000AFE4B0E0EFE4F0E080818E7F8C93AFE40A
:10106000B0E0EFE4F0E0808182608C93AEE4B0E029
:10107000EEE4F0E0808188608C93AEE4B0E0EEE4D2
:10108000F0E0808180618C93AEE4B0E0EEE4F0E0CB
:1010900080818E7F8C93AEE4B0E0EEE4F0E080815E
:1010A0008D7F8C93AEE4B0E0EEE4F0E0808184606C
:1010B0008C93AEE4B0E0EEE4F0E080818E7F8C9320
:1010C000CF91DF910895DF93CF93CDB7DEB7CF9166
:1010D000DF910895DF93CF93CDB7DEB7AFE4B0E0F3
:1010E000EFE4F0E0808180688C93AFE4B0E0EFE45F
:1010F000F0E0808180628C93AFE4B0E0EFE4F0E058
:1011000080818F7B8C93AFE4B0E0EFE4F0E08081EE
:101110008F7E8C93CF91DF910895DF93CF930F92C1
:10112000CDB7DEB789838981882341F4AEE4B0E08E
:10113000EEE4F0E080818F7B8C930AC0898181305E
:1011400039F4AEE4B0E0EEE4F0E0808180648C93AA
:101150000F90CF91DF910895DF93CF9300D0CDB75B
:10116000DEB79A838983ECE4F0E089819A819183E8
:1011700080830F900F90CF91DF910895DF93CF93ED
:1011800000D0CDB7DEB79A838983EAE4F0E08981A5
:101190009A81918380830F900F90CF91DF91089572
:1011A000DF93CF9300D0CDB7DEB79A838983E8E48D
:1011B000F0E089819A81918380830F900F90CF9185
:1011C000DF910895DF93CF9300D0CDB7DEB79A8338
:1011D0008983E6E4F0E089819A81918380830F908E
:1011E0000F90CF91DF910895DF93CF9300D0CDB7CB
:1011F000DEB79A83898389819A81009731F089814A
:101200009A8190937F0180937E010F900F90CF91F0
:10121000DF9108951F920F920FB60F9211242F9312
:101220003F934F935F936F937F938F939F93AF936E
:10123000BF93EF93FF93DF93CF93CDB7DEB780914A
:101240007C0190917D01009729F0E0917C01F09163
:101250007D010995CF91DF91FF91EF91BF91AF9102
:101260009F918F917F916F915F914F913F912F91BE
:101270000F900FBE0F901F9018951F920F920FB6F0
:101280000F9211242F933F934F935F936F937F930C
:101290008F939F93AF93BF93EF93FF93DF93CF937E
:1012A000CDB7DEB780917E0190917F01009729F044
:1012B000E0917E01F0917F010995CF91DF91FF913F
:1012C000EF91BF91AF919F918F917F916F915F91BE
:1012D0004F913F912F910F900FBE0F901F90189537
:1012E0001F920F920FB60F9211242F933F934F939B
:1012F0005F936F937F938F939F93AF93BF93EF937E
:10130000FF93DF93CF93CDB7DEB7809180019091AB
:101310008101009729F0E0918001F0918101099508
:10132000CF91DF91FF91EF91BF91AF919F918F91FD
:101330007F916F915F914F913F912F910F900FBED1
:101340000F901F901895DF93CF93CDB7DEB7AFE521
:10135000B0E0EFE5F0E0808180688C93CF91DF9181
:101360000895DF93CF93CDB7DEB7AFE5B0E0EFE5FB
:10137000F0E080818F778C93CF91DF910895DF9398
:10138000CF93CDB7DEB783E062E040E00E94B70BB9
:1013900083E062E041E00E94B70CCF91DF910895B5
:1013A000DF93CF93CDB7DEB7A5E5B0E0E5E5F0E09C
:1013B000808181608C93A5E5B0E0E5E5F0E0808177
:1013C00082608C93CF91DF910895DF93CF93CDB757
:1013D000DEB7ABE5B0E0EBE5F0E0808180648C93B4
:1013E000CF91DF910895DF93CF93CDB7DEB7ABE513
:1013F000B0E0EBE5F0E080818F7B8C93CF91DF91C3
:1014000008951F920F920FB60F9211242F933F93BE
:101410004F935F936F937F938F939F93AF93BF93FC
:10142000EF93FF93DF93CF93CDB7DEB72E97DEBF59
:10143000CDBF80E067E041E00E94B70C80E090E023
:10144000AAE7B4E48B879C87AD87BE876B857C85D4
:101450008D859E8520E030E04AEF54E40E941F0213
:10146000DC01CB018F839887A987BA876F81788544
:1014700089859A8520E030E040E85FE30E947903A7
:1014800088232CF481E090E09E838D833FC06F81A0
:10149000788589859A8520E03FEF4FE757E40E94E1
:1014A000190318164CF56B857C858D859E8520E08B
:1014B00030E040E251E40E941F02DC01CB01BC019C
:1014C000CD010E944900DC01CB019E838D830FC0BA
:1014D00088EC90E09C838B838B819C810197F1F752
:1014E0009C838B838D819E8101979E838D838D81CB
:1014F0009E81009769F714C06F81788589859A85E8
:101500000E944900DC01CB019E838D838D819E81E9
:101510009A83898389819A810197F1F79A838983D4
:1015200080E067E040E00E94B70C2E96DEBFCDBFA2
:10153000CF91DF91FF91EF91BF91AF919F918F91EB
:101540007F916F915F914F913F912F910F900FBEBF
:101550000F901F901895DF93CF93CDB7DEB76C97A0
:101560000FB6F894DEBF0FBECDBF809182018823F5
:1015700009F07BC083E060E041E00E94B70C80E0AE
:1015800090E0AAE7B4E4898F9A8FAB8FBC8F698D06
:101590007A8D8B8D9C8D20E030E04AEF54E40E94E0
:1015A0001F02DC01CB018D8B9E8BAF8BB88F6D89B9
:1015B0007E898F89988D20E030E040E85FE30E94CB
:1015C000790388232CF481E090E09C8B8B8B3FC0C7
:1015D0006D897E898F89988D20E03FEF4FE757E432
:1015E0000E94190318164CF5698D7A8D8B8D9C8D90
:1015F00020E030E040E251E40E941F02DC01CB0118
:10160000BC01CD010E944900DC01CB019C8B8B8B7E
:101610000FC088EC90E09A8B898B89899A89019711
:10162000F1F79A8B898B8B899C8901979C8B8B8B8B
:101630008B899C89009769F714C06D897E898F8991
:10164000988D0E944900DC01CB019C8B8B8B8B8990
:101650009C89988B8F878F8598890197F1F7988B54
:101660008F8781E08093820179C083E060E040E071
:101670000E94B70C80E090E0AAE7B4E48B879C87D7
:10168000AD87BE876B857C858D859E8520E030E0AB
:101690004AEF54E40E941F02DC01CB018F8398873C
:1016A000A987BA876F81788589859A8520E030E09F
:1016B00040E85FE30E94790388232CF481E090E006
:1016C0009E838D833FC06F81788589859A8520E0D0
:1016D0003FEF4FE757E40E94190318164CF56B854E
:1016E0007C858D859E8520E030E040E251E40E94BB
:1016F0001F02DC01CB01BC01CD010E944900DC01CD
:10170000CB019E838D830FC088EC90E09C838B83FC
:101710008B819C810197F1F79C838B838D819E81C6
:1017200001979E838D838D819E81009769F714C0F8
:101730006F81788589859A850E944900DC01CB01FB
:101740009E838D838D819E819A83898389819A81ED
:101750000197F1F79A838983109282016C960FB6F4
:10176000F894DEBF0FBECDBFCF91DF910895DF9318
:10177000CF93CDB7DEB727970FB6F894DEBF0FBE75
:10178000CDBF89836A834B838B81813009F06FC021
:101790008981282F30E03F832E838E819F81813085
:1017A000910549F12E813F81223031052CF48E8143
:1017B0009F81009761F0D2C02E813F812230310598
:1017C00071F18E819F8183309105E9F1C7C0AAE351
:1017D000B0E0EAE3F0E08081482F8A81282F30E0F2
:1017E00081E090E0022E02C0880F991F0A94E2F770
:1017F000842B8C93B3C0A7E3B0E0E7E3F0E08081F3
:10180000482F8A81282F30E081E090E0022E02C02C
:10181000880F991F0A94E2F7842B8C939FC0A4E34E
:10182000B0E0E4E3F0E08081482F8A81282F30E0A7
:1018300081E090E0022E02C0880F991F0A94E2F71F
:10184000842B8C938BC0A1E3B0E0E1E3F0E08081D6
:10185000482F8A81282F30E081E090E0022E02C0DC
:10186000880F991F0A94E2F7842B8C9377C08B81A1
:10187000882309F073C08981282F30E03D832C83B1
:101880008C819D818130910559F12C813D812230DF
:1018900031052CF48C819D81009769F05FC02C810B
:1018A0003D812230310589F18C819D818330910504
:1018B00009F440C053C0AAE3B0E0EAE3F0E080815D
:1018C000482F8A81282F30E081E090E0022E02C06C
:1018D000880F991F0A94E2F7809584238C933EC069
:1018E000A7E3B0E0E7E3F0E08081482F8A81282F6A
:1018F00030E081E090E0022E02C0880F991F0A9428
:10190000E2F7809584238C9329C0A4E3B0E0E4E35C
:10191000F0E08081482F8A81282F30E081E090E03C
:10192000022E02C0880F991F0A94E2F78095842343
:101930008C9314C0A1E3B0E0E1E3F0E08081482F94
:101940008A81282F30E081E090E0022E02C0880FCB
:10195000991F0A94E2F7809584238C9327960FB6FB
:10196000F894DEBF0FBECDBFCF91DF910895DF9316
:10197000CF93CDB7DEB727970FB6F894DEBF0FBE73
:10198000CDBF89836A834B838B81813009F06FC01F
:101990008981282F30E03F832E838E819F81813083
:1019A000910549F12E813F81223031052CF48E8141
:1019B0009F81009761F0D2C02E813F812230310596
:1019C00071F18E819F8183309105E9F1C7C0ABE34E
:1019D000B0E0EBE3F0E08081482F8A81282F30E0EF
:1019E00081E090E0022E02C0880F991F0A94E2F76E
:1019F000842B8C93B3C0A8E3B0E0E8E3F0E08081EF
:101A0000482F8A81282F30E081E090E0022E02C02A
:101A1000880F991F0A94E2F7842B8C939FC0A5E34B
:101A2000B0E0E5E3F0E08081482F8A81282F30E0A4
:101A300081E090E0022E02C0880F991F0A94E2F71D
:101A4000842B8C938BC0A2E3B0E0E2E3F0E08081D2
:101A5000482F8A81282F30E081E090E0022E02C0DA
:101A6000880F991F0A94E2F7842B8C9377C08B819F
:101A7000882309F073C08981282F30E03D832C83AF
:101A80008C819D818130910559F12C813D812230DD
:101A900031052CF48C819D81009769F05FC02C8109
:101AA0003D812230310589F18C819D818330910502
:101AB00009F440C053C0ABE3B0E0EBE3F0E0808159
:101AC000482F8A81282F30E081E090E0022E02C06A
:101AD000880F991F0A94E2F7809584238C933EC067
:101AE000A8E3B0E0E8E3F0E08081482F8A81282F66
:101AF00030E081E090E0022E02C0880F991F0A9426
:101B0000E2F7809584238C9329C0A5E3B0E0E5E358
:101B1000F0E08081482F8A81282F30E081E090E03A
:101B2000022E02C0880F991F0A94E2F78095842341
:101B30008C9314C0A2E3B0E0E2E3F0E08081482F90
:101B40008A81282F30E081E090E0022E02C0880FC9
:101B5000991F0A94E2F7809584238C9327960FB6F9
:101B6000F894DEBF0FBECDBFCF91DF910895DF9314
:101B7000CF9300D000D0CDB7DEB789836A83898147
:101B8000282F30E03C832B838B819C818130910511
:101B9000D1F02B813C81223031052CF48B819C814A
:101BA000009761F01EC02B813C812230310581F00D
:101BB0008B819C818330910581F013C0EAE3F0E0D2
:101BC0008A8180830EC0E7E3F0E08A81808309C0C8
:101BD000E4E3F0E08A81808304C0E1E3F0E08A81FD
:101BE00080830F900F900F900F90CF91DF91089509
:101BF000DF93CF9300D000D0CDB7DEB789836A835F
:101C00008981282F30E03C832B838B819C8181301C
:101C10009105D1F02B813C81223031052CF48B8150
:101C20009C81009761F01EC02B813C8122303105E0
:101C300081F08B819C818330910581F013C0EBE3AF
:101C4000F0E08A8180830EC0E8E3F0E08A8180833F
:101C500009C0E5E3F0E08A81808304C0E2E3F0E0BC
:101C60008A8180830F900F900F900F90CF91DF911A
:101C70000895DF93CF9300D000D00F92CDB7DEB799
:101C80008A836B8319828A81282F30E03D832C83DD
:101C90004C815D814130510541F18C819D818230C3
:101CA000910534F42C813D812115310561F052C03C
:101CB0004C815D814230510551F18C819D81833091
:101CC0009105B9F147C0E9E3F0E08081282F30E0C9
:101CD0008B81882F90E0A90102C0559547958A9580
:101CE000E2F7CA018170898335C0E6E3F0E08081C4
:101CF000282F30E08B81882F90E0A90102C05595F4
:101D000047958A95E2F7CA018170898323C0E3E38E
:101D1000F0E08081282F30E08B81882F90E0A901AE
:101D200002C0559547958A95E2F7CA01817089836B
:101D300011C0E0E3F0E08081282F30E08B81882F14
:101D400090E0A90102C0559547958A95E2F7CA012E
:101D50008170898389810F900F900F900F900F9061
:101D6000CF91DF910895DF93CF93CDB7DEB7A6E291
:101D7000B0E0E6E2F0E0808188608C93A7E2B0E01A
:101D8000E7E2F0E080818F778C93A7E2B0E0E7E2B2
:101D9000F0E0808180648C93A7E2B0E0E7E2F0E0BD
:101DA00080818F7D8C93A6E2B0E0E6E2F0E0808156
:101DB00084608C93A6E2B0E0E6E2F0E0808182608D
:101DC0008C93A6E2B0E0E6E2F0E080818E7F8C9317
:101DD000CF91DF910895DF93CF93CDB7DEB7A6E221
:101DE000B0E0E6E2F0E0808180688C93CF91DF91F3
:101DF0000895DF93CF93CDB7DEB7A7E2B0E0E7E277
:101E0000F0E080818F7E8C93A7E2B0E0E7E2F0E023
:101E10008081877F8C93A7E2B0E0E7E2F0E08081E9
:101E20008B7F8C93A7E2B0E0E7E2F0E080818D7FCA
:101E30008C93A7E2B0E0E7E2F0E080818E7F8C93A4
:101E4000CF91DF910895DF93CF93CDB7DEB7A6E2B0
:101E5000B0E0E6E2F0E0808180648C93E6E2F0E0BE
:101E6000808182958F70882F90E0817090700097AC
:101E7000A9F3E4E2F0E080819181CC01A0E0B0E040
:101E800028E833E140E050E0BC01CD010E944C1A4B
:101E9000DC01CB012FEF33E040E050E0BC01CD018D
:101EA0000E946B1ADA01C901CF91DF910895DF9387
:101EB000CF93CDB7DEB7A7E2B0E0E7E2F0E08081F4
:101EC0008F7E8C93A7E2B0E0E7E2F0E0808188604B
:101ED0008C93A7E2B0E0E7E2F0E080818B7F8C9307
:101EE000A7E2B0E0E7E2F0E080818D7F8C93A7E28B
:101EF000B0E0E7E2F0E0808181608C93CF91DF91E8
:101F00000895EF92FF920F931F93DF93CF930F9259
:101F1000CDB7DEB78983A6E2B0E0E6E2F0E08081EB
:101F200080648C93E6E2F0E0808182958F70882F48
:101F300090E0817090700097A9F3A6E2B0E0E6E22D
:101F4000F0E0808180618C93E4E2F0E08081918117
:101F5000CC01A0E0B0E028E833E140E050E0BC0173
:101F6000CD010E944C1A7B018C018981882F90E061
:101F7000982F8827990F9C01442737FD4095542FAF
:101F8000C801B7010E946B1ADA01C9010F90CF9105
:101F9000DF911F910F91FF90EF900895DF93CF9302
:101FA000CDB7DEB7CF91DF9108951F920F920FB694
:101FB0000F9211242F933F934F935F936F937F93CF
:101FC0008F939F93AF93BF93EF93FF93DF93CF9341
:101FD000CDB7DEB72E97DEBFCDBF83E060E041E036
:101FE0000E94B70C80E090E0AAE7B4E48B879C875E
:101FF000AD87BE876B857C858D859E8520E030E032
:102000004AEF54E40E941F02DC01CB018F839887C2
:10201000A987BA876F81788589859A8520E030E025
:1020200040E85FE30E94790388232CF481E090E08C
:102030009E838D833FC06F81788589859A8520E056
:102040003FEF4FE757E40E94190318164CF56B85D4
:102050007C858D859E8520E030E040E251E40E9441
:102060001F02DC01CB01BC01CD010E944900DC0153
:10207000CB019E838D830FC088EC90E09C838B8383
:102080008B819C810197F1F79C838B838D819E814D
:1020900001979E838D838D819E81009769F714C07F
:1020A0006F81788589859A850E944900DC01CB0182
:1020B0009E838D838D819E819A83898389819A8174
:1020C0000197F1F79A83898383E060E040E00E9402
:1020D000B70C2E96DEBFCDBFCF91DF91FF91EF9170
:1020E000BF91AF919F918F917F916F915F914F9130
:1020F0003F912F910F900FBE0F901F901895DF9377
:10210000CF93CDB7DEB7CF91DF910895DF93CF9313
:10211000CDB7DEB7CF91DF910895DF93CF93CDB7E1
:10212000DEB7E8970FB6F894DEBF0FBECDBF81E0F3
:1021300064E041E00E94B70B81E065E041E00E946D
:10214000B70B81E066E041E00E94B70B81E067E0F9
:1021500041E00E94B70B81E063E041E00E94B70BD1
:1021600081E064E041E00E94B70B81E065E041E07E
:102170000E94B70B80E090E0A8E4B2E48DAB9EAB88
:10218000AFABB8AF6DA97EA98FA998AD20E030E0C4
:102190004AEF54E40E941F02DC01CB0189AB9AABE9
:1021A000ABABBCAB69A97AA98BA99CA920E030E0B4
:1021B00040E85FE30E94790388232CF481E090E0FB
:1021C00098AB8FA73FC069A97AA98BA99CA920E0E9
:1021D0003FEF4FE757E40E94190318164CF56DA91D
:1021E0007EA98FA998AD20E030E040E251E40E9442
:1021F0001F02DC01CB01BC01CD010E944900DC01C2
:10220000CB0198AB8FA70FC088EC90E09EA78DA75D
:102210008DA59EA50197F1F79EA78DA78FA598A9DB
:10222000019798AB8FA78FA598A9009769F714C05D
:1022300069A97AA98BA99CA90E944900DC01CB015C
:1022400098AB8FA78FA598A99CA78BA78BA59CA5BA
:102250000197F1F79CA78BA780E20E94A31280E26E
:102260000E94A31280E80E94A31280E090E0A0E008
:10227000B0E48FA398A7A9A7BAA76FA178A589A54D
:102280009AA520E030E04AEF54E40E941F02DC01EE
:10229000CB018BA39CA3ADA3BEA36BA17CA18DA1FD
:1022A0009EA120E030E040E85FE30E9479038823AC
:1022B0002CF481E090E09AA389A33FC06BA17CA19C
:1022C0008DA19EA120E03FEF4FE757E40E94190344
:1022D00018164CF56FA178A589A59AA520E030E0E5
:1022E00040E251E40E941F02DC01CB01BC01CD01A0
:1022F0000E944900DC01CB019AA389A30FC088EC9E
:1023000090E098A38F8F8F8D98A10197F1F798A3F4
:102310008F8F89A19AA101979AA389A389A19AA1D4
:10232000009769F714C06BA17CA18DA19EA10E94AA
:102330004900DC01CB019AA389A389A19AA19E8FB0
:102340008D8F8D8D9E8D0197F1F79E8F8D8F80E003
:102350000E94A31280EC0E94A31280E090E0A0E80B
:10236000BFE3898F9A8FAB8FBC8F698D7A8D8B8DF0
:102370009C8D20E030E04AEF54E40E941F02DC0113
:10238000CB018D8B9E8BAF8BB88F6D897E898F89AA
:10239000988D20E030E040E85FE30E9479038823D5
:1023A0002CF481E090E09C8B8B8B3FC06D897E8903
:1023B0008F89988D20E03FEF4FE757E40E94190383
:1023C00018164CF5698D7A8D8B8D9C8D20E030E050
:1023D00040E251E40E941F02DC01CB01BC01CD01AF
:1023E0000E944900DC01CB019C8B8B8B0FC088ECD9
:1023F00090E09A8B898B89899A890197F1F79A8B5A
:10240000898B8B899C8901979C8B8B8B8B899C8971
:10241000009769F714C06D897E898F89988D0E9415
:102420004900DC01CB019C8B8B8B8B899C89988B21
:102430008F878F8598890197F1F7988B8F8780E038
:102440000E94A31280E10E94A31280E090E0A0E02D
:10245000B0E48B879C87AD87BE876B857C858D8537
:102460009E8520E030E04AEF54E40E941F02DC0128
:10247000CB018F839887A987BA876F8178858985F3
:102480009A8520E030E040E85FE30E9479038823EA
:102490002CF481E090E09E838D833FC06F8178852E
:1024A00089859A8520E03FEF4FE757E40E941903A2
:1024B00018164CF56B857C858D859E8520E030E077
:1024C00040E251E40E941F02DC01CB01BC01CD01BE
:1024D0000E944900DC01CB019E838D830FC088ECF4
:1024E00090E09C838B838B819C810197F1F79C8387
:1024F0008B838D819E8101979E838D838D819E81AB
:10250000009769F714C06F81788589859A850E9444
:102510004900DC01CB019E838D838D819E819A834E
:10252000898389819A810197F1F79A83898381E070
:1025300080938301E8960FB6F894DEBF0FBECDBF3F
:10254000CF91DF9108950F931F93DF93CF93CDB772
:10255000DEB7C754D0400FB6F894DEBF0FBECDBF74
:10256000FE01E95BFF4F808381E063E040E00E9471
:10257000B70C81E064E040E00E94B70CFE01E95B2B
:10258000FF4F808182958F70982F917081E064E079
:10259000492F0E94B70CFE01E95BFF4F80818295B5
:1025A00086958770982F917081E065E0492F0E9491
:1025B000B70CFE01E95BFF4F808182958695869579
:1025C0008370982F917081E066E0492F0E94B70CCC
:1025D000FE01E95BFF4F8081982F991F9927991F72
:1025E00081E067E0492F0E94B70C81E065E041E09F
:1025F0000E94B70CFE01ED5BFF4F80E090E0A0E889
:10260000BFE380839183A283B3838E01015C1F4F5C
:10261000FE01ED5BFF4F608171818281938120E03B
:1026200030E04AEF54E40E941F02DC01CB01F801C4
:1026300080839183A283B383FE01FF9660817181C1
:102640008281938120E030E040E85FE30E947903DB
:1026500088232CF481E090E09EAF8DAF46C0FE0150
:10266000FF96608171818281938120E03FEF4FE787
:1026700057E40E941903181664F5FE01ED5BFF4F45
:10268000608171818281938120E030E040E251E4F9
:102690000E941F02DC01CB01BC01CD010E94490058
:1026A000DC01CB019EAF8DAF0FC088EC90E09CAFFA
:1026B0008BAF8BAD9CAD0197F1F79CAF8BAF8DAD20
:1026C0009EAD01979EAF8DAF8DAD9EAD009769F722
:1026D00016C0FE01FF9660817181828193810E9404
:1026E0004900DC01CB019EAF8DAF8DAD9EAD9AAFA1
:1026F00089AF89AD9AAD0197F1F79AAF89AF81E0C3
:1027000065E040E00E94B70C80E090E0A0E8BFE305
:102710008DAB9EABAFABB8AF6DA97EA98FA998ADBD
:1027200020E030E04AEF54E40E941F02DC01CB01BC
:1027300089AB9AABABABBCAB69A97AA98BA99CA9B5
:1027400020E030E040E85FE30E94790388232CF426
:1027500081E090E098AB8FA73FC069A97AA98BA9C7
:102760009CA920E03FEF4FE757E40E941903181699
:102770004CF56DA97EA98FA998AD20E030E040E22C
:1027800051E40E941F02DC01CB01BC01CD010E947B
:102790004900DC01CB0198AB8FA70FC088EC90E01B
:1027A0009EA78DA78DA59EA50197F1F79EA78DA742
:1027B0008FA598A9019798AB8FA78FA598A9009787
:1027C00069F714C069A97AA98BA99CA90E9449003C
:1027D000DC01CB0198AB8FA78FA598A99CA78BA7ED
:1027E0008BA59CA50197F1F79CA78BA780918301EE
:1027F000882309F420C1FE01E95BFF4F8081982FF7
:10280000917081E064E0492F0E94B70CFE01E95B02
:10281000FF4F80818695982F917081E065E0492F68
:102820000E94B70CFE01E95BFF4F8081869586957B
:10283000982F917081E066E0492F0E94B70CFE014D
:10284000E95BFF4F8081869586958695982F9170DC
:1028500081E067E0492F0E94B70C81E065E041E02C
:102860000E94B70C80E090E0A0E8BFE38FA398A798
:10287000A9A7BAA76FA178A589A59AA520E030E0FD
:102880004AEF54E40E941F02DC01CB018BA39CA3FE
:10289000ADA3BEA36BA17CA18DA19EA120E030E0E1
:1028A00040E85FE30E94790388232CF481E090E004
:1028B0009AA389A33FC06BA17CA18DA19EA120E01A
:1028C0003FEF4FE757E40E94190318164CF56FA12C
:1028D00078A589A59AA520E030E040E251E40E9465
:1028E0001F02DC01CB01BC01CD010E944900DC01CB
:1028F000CB019AA389A30FC088EC90E098A38F8F97
:102900008F8D98A10197F1F798A38F8F89A19AA134
:1029100001979AA389A389A19AA1009769F714C086
:102920006BA17CA18DA19EA10E944900DC01CB017D
:102930009AA389A389A19AA19E8F8D8F8D8D9E8D3B
:102940000197F1F79E8F8D8F81E065E040E00E9456
:10295000B70C80E090E0A0E8BFE3898F9A8FAB8F3F
:10296000BC8F698D7A8D8B8D9C8D20E030E04AEF95
:1029700054E40E941F02DC01CB018D8B9E8BAF8B38
:10298000B88F6D897E898F89988D20E030E040E88E
:102990005FE30E94790388232CF481E090E09C8B14
:1029A0008B8B3FC06D897E898F89988D20E03FEFAA
:1029B0004FE757E40E94190318164CF5698D7A8D7C
:1029C0008B8D9C8D20E030E040E251E40E941F029C
:1029D000DC01CB01BC01CD010E944900DC01CB012F
:1029E0009C8B8B8B0FC088EC90E09A8B898B8989AC
:1029F0009A890197F1F79A8B898B8B899C8901972A
:102A00009C8B8B8B8B899C89009769F714C06D898F
:102A10007E898F89988D0E944900DC01CB019C8BB7
:102A20008B8B8B899C89988B8F878F859889019751
:102A3000F1F7988B8F8780E090E0A0E0B0E48B877F
:102A40009C87AD87BE876B857C858D859E8520E0C4
:102A500030E04AEF54E40E941F02DC01CB018F8377
:102A60009887A987BA876F81788589859A8520E0BC
:102A700030E040E85FE30E94790388232CF481E092
:102A800090E09E838D833FC06F81788589859A858C
:102A900020E03FEF4FE757E40E94190318164CF56A
:102AA0006B857C858D859E8520E030E040E251E499
:102AB0000E941F02DC01CB01BC01CD010E94490034
:102AC000DC01CB019E838D830FC088EC90E09C835A
:102AD0008B838B819C810197F1F79C838B838D8104
:102AE0009E8101979E838D838D819E81009769F7DA
:102AF00014C06F81788589859A850E944900DC0120
:102B0000CB019E838D838D819E819A838983898168
:102B10009A810197F1F79A838983C95BDF4F0FB6DA
:102B2000F894DEBF0FBECDBFCF91DF911F910F9103
:102B30000895DF93CF93CDB7DEB7AB970FB6F89478
:102B4000DEBF0FBECDBF8BA781E063E041E00E94F6
:102B5000B70C81E064E040E00E94B70C8BA5829541
:102B60008F70982F917081E064E0492F0E94B70C1C
:102B70008BA5829586958770982F917081E065E08E
:102B8000492F0E94B70C8BA58295869586958370F8
:102B9000982F917081E066E0492F0E94B70C8BA5B9
:102BA000982F991F9927991F81E067E0492F0E946C
:102BB000B70C81E065E041E00E94B70C80E090E056
:102BC000A0E8BFE38FA398A7A9A7BAA76FA178A58C
:102BD00089A59AA520E030E04AEF54E40E941F0244
:102BE000DC01CB018BA39CA3ADA3BEA36BA17CA1F5
:102BF0008DA19EA120E030E040E85FE30E947903D0
:102C000088232CF481E090E09AA389A33FC06BA1B4
:102C10007CA18DA19EA120E03FEF4FE757E40E94E9
:102C2000190318164CF56FA178A589A59AA520E07F
:102C300030E040E251E40E941F02DC01CB01BC0104
:102C4000CD010E944900DC01CB019AA389A30FC0EA
:102C500088EC90E098A38F8F8F8D98A10197F1F762
:102C600098A38F8F89A19AA101979AA389A389A17B
:102C70009AA1009769F714C06BA17CA18DA19EA1B8
:102C80000E944900DC01CB019AA389A389A19AA1E2
:102C90009E8F8D8F8D8D9E8D0197F1F79E8F8D8FDD
:102CA00081E065E040E00E94B70C8BA5982F917001
:102CB00081E064E0492F0E94B70C8BA58695982F80
:102CC000917081E065E0492F0E94B70C8BA5869535
:102CD0008695982F917081E066E0492F0E94B70C8D
:102CE0008BA5869586958695982F917081E067E0F3
:102CF000492F0E94B70C81E065E041E00E94B70CCB
:102D000080E090E0A0E8BFE3898F9A8FAB8FBC8F03
:102D1000698D7A8D8B8D9C8D20E030E04AEF54E4F4
:102D20000E941F02DC01CB018D8B9E8BAF8BB88F75
:102D30006D897E898F89988D20E030E040E85FE3DF
:102D40000E94790388232CF481E090E09C8B8B8B8C
:102D50003FC06D897E898F89988D20E03FEF4FE7D6
:102D600057E40E94190318164CF5698D7A8D8B8DE6
:102D70009C8D20E030E040E251E40E941F02DC0123
:102D8000CB01BC01CD010E944900DC01CB019C8B31
:102D90008B8B0FC088EC90E09A8B898B89899A89FC
:102DA0000197F1F79A8B898B8B899C8901979C8B72
:102DB0008B8B8B899C89009769F714C06D897E89FC
:102DC0008F89988D0E944900DC01CB019C8B8B8BF5
:102DD0008B899C89988B8F878F8598890197F1F7CC
:102DE000988B8F8781E065E040E00E94B70C80E01F
:102DF00090E0A0E0B0E48B879C87AD87BE876B85B1
:102E00007C858D859E8520E030E04AEF54E40E9469
:102E10001F02DC01CB018F839887A987BA876F8156
:102E2000788589859A8520E030E040E85FE30E945C
:102E3000790388232CF481E090E09E838D833FC04A
:102E40006F81788589859A8520E03FEF4FE757E4C9
:102E50000E94190318164CF56B857C858D859E851F
:102E600020E030E040E251E40E941F02DC01CB018F
:102E7000BC01CD010E944900DC01CB019E838D8302
:102E80000FC088EC90E09C838B838B819C810197A1
:102E9000F1F79C838B838D819E8101979E838D8327
:102EA0008D819E81009769F714C06F81788589852F
:102EB0009A850E944900DC01CB019E838D838D8120
:102EC0009E819A83898389819A810197F1F79A83F8
:102ED0008983AB960FB6F894DEBF0FBECDBFCF91FE
:102EE000DF910895DF93CF9300D000D000D0CDB70D
:102EF000DEB79C838B836D834E838D816E810E94B0
:102F00003A181A8219828AC08D81882F90E0AC010C
:102F100042955295507F5427407F54278E81282F09
:102F200030E08A81882F90E0820F931F840F951FD5
:102F30008031910594F48981882379F48A81282F3E
:102F400030E08B819C81FC01E20FF31F80810E94A5
:102F500099158A818F5F8A8361C08D81882F90E067
:102F6000AC0142955295507F5427407F54278E8163
:102F7000282F30E08A81882F90E0820F931F840FE2
:102F8000951F8031910514F18D81882F90E0AC015F
:102F900042955295507F5427407F54278E81282F89
:102FA00030E08A81882F90E0820F931F840F951F55
:102FB000803291055CF48981882341F481E06E813F
:102FC0000E943A1889818F5F898328C08D81882F5C
:102FD00090E0AC0142955295507F5427407F542792
:102FE0008E81282F30E08A81882F90E0820F931FF6
:102FF000840F951F803291058CF48981813071F4A2
:103000008A81282F30E08B819C81FC01E20FF31F25
:1030100080810E9499158A818F5F8A838A81282FF7
:1030200030E08B819C81FC01E20FF31F80818823BB
:10303000C1F08D81882F90E0AC0142955295507F70
:103040005427407F54278E81282F30E08A81882F93
:1030500090E0820F931F840F951F803291050CF42E
:1030600053CF26960FB6F894DEBF0FBECDBFCF91DB
:10307000DF910895DF93CF9300D00F92CDB7DEB7E5
:103080008A836B838A81882F90E0002496958795A8
:103090000794969587950794982F802D982F8B816C
:1030A000890F898389818068898389810E94A3121D
:1030B0000F900F900F90CF91DF910895DF93CF93F2
:1030C000CDB7DEB768970FB6F894DEBF0FBECDBFA1
:1030D0006D8B7E8B8F8B988F1F82188619861A8630
:1030E0001E821D8219821A821B821C8245C08D8914
:1030F0009E89AF89B88D2AE030E040E050E0BC0105
:10310000CD010E946B1ADC01CB0189839A83AB83CA
:10311000BC832D813E814981CE010B96FC01E20FDB
:10312000F31F40838D899E89AF89B88D2AE030E0F6
:1031300040E050E0BC01CD010E946B1ADA01C901E8
:103140008D8B9E8BAF8BB88F8D819E8101969E83D8
:103150008D838F819885A985BA850196A11DB11DA2
:103160008F839887A987BA878D899E89AF89B88D03
:103170000097A105B10549F08D899E89AF89B88D69
:103180000097A105B10509F0B2CF8F8198859E8384
:103190008D8313C08D819E819C0121503040CE01D2
:1031A0000B96FC01E20FF31F8081805D0E94991550
:1031B0008D819E8101979E838D838D819E81009755
:1031C00049F768960FB6F894DEBF0FBECDBFCF911A
:1031D000DF910895DF93CF9300D000D00F92CDB749
:1031E000DEB79C838B836D838D81883018F58D814C
:1031F000882F90E0880F991F880F991F880F991FBB
:103200008A838A8180648A838A810E94A3121982B8
:103210000EC08981282F30E08B819C81FC01E20F58
:10322000F31F80810E94991589818F5F898389812D
:10323000883078F382E00E94A3120F900F900F90D5
:103240000F900F90CF91DF910895DF93CF9300D02F
:103250000F92CDB7DEB789836A834B838A816B81F6
:103260000E943A1889810E9499150F900F900F9033
:10327000CF91DF910895DF93CF930F92CDB7DEB753
:10328000898389816FE00E94B70D89816FEF0E9469
:10329000F80D0F90CF91DF910895DF93CF93CDB7C5
:1032A000DEB7A7970FB6F894DEBF0FBECDBF8AA3D7
:1032B0008FEF898BCE0142969CA38BA3E8E6F1E0C9
:1032C000FEA3EDA3F0E1FFA3EDA1FEA100808DA17F
:1032D0009EA101969EA38DA3EBA1FCA100828BA1D0
:1032E0009CA101969CA38BA39FA191509FA3EFA1AA
:1032F000EE2351F71F86ADC08AA16F8540E00E9482
:10330000B70C84E0888B99C08AA168890E94390E25
:10331000882309F08FC08889882F90E09C01245071
:1033200030408F85482F50E0220F331F220F331F6C
:10333000CE010196820F931F840F951FFC01719699
:103340008081898B8AA168890E94390E8823D1F3F4
:1033500080E090E0A8E4B2E48B879C87AD87BE87CD
:103360006B857C858D859E8520E030E04AEF54E4B6
:103370000E941F02DC01CB018F839887A987BA873F
:103380006F81788589859A8520E030E040E85FE3A9
:103390000E94790388232CF481E090E09E838D8342
:1033A0003FC06F81788589859A8520E03FEF4FE7A0
:1033B00057E40E94190318164CF56B857C858D85A2
:1033C0009E8520E030E040E251E40E941F02DC01D3
:1033D000CB01BC01CD010E944900DC01CB019E83E1
:1033E0008D830FC088EC90E09C838B838B819C81C4
:1033F0000197F1F79C838B838D819E8101979E833A
:103400008D838D819E81009769F714C06F817885C7
:1034100089859A850E944900DC01CB019E838D83BA
:103420008D819E819A83898389819A810197F1F7A1
:103430009A83898388898F5F888B8889883008F48C
:1034400063CF8AA16F8541E00E94B70C8F858F5FA3
:103450008F878F85843008F44FCF8989A7960FB660
:10346000F894DEBF0FBECDBFCF91DF910895DF93FB
:10347000CF93CDB7DEB7CF91DF910895DF93CF9390
:10348000CDB7DEB7CF91DF910895DF93CF93CDB75E
:10349000DEB7CF91DF910895629FD001739FF00155
:1034A000829FE00DF11D649FE00DF11D929FF00DD4
:1034B000839FF00D749FF00D659FF00D9927729F0B
:1034C000B00DE11DF91F639FB00DE11DF91FBD0196
:1034D000CF0111240895A1E21A2EAA1BBB1BFD01E6
:1034E0000DC0AA1FBB1FEE1FFF1FA217B307E407E3
:1034F000F50720F0A21BB30BE40BF50B661F771F3B
:10350000881F991F1A9469F760957095809590951A
:103510009B01AC01BD01CF0108952F923F924F92C4
:103520005F926F927F928F929F92AF92BF92CF9253
:10353000DF92EF92FF920F931F93CF93DF93CDB75C
:10354000DEB7CA1BDB0B0FB6F894DEBF0FBECDBFD4
:1035500009942A88398848885F846E847D848C84A5
:103560009B84AA84B984C884DF80EE80FD800C81AE
:103570001B81AA81B981CE0FD11D0FB6F894DEBF91
:0C3580000FBECDBFED010895F894FFCF01
:10358C00000000000000000000010202030303031E
:10359C0004040404040404040505050505050505D7
:1035AC0005050505050505050606060606060606B7
:1035BC00060606060606060606060606060606069F
:1035CC000606060606060606070707070707070787
:1035DC00070707070707070707070707070707076F
:1035EC00070707070707070707070707070707075F
:1035FC00070707070707070707070707070707074F
:10360C000707070707070707080808080808080836
:10361C00080808080808080808080808080808081E
:10362C00080808080808080808080808080808080E
:10363C0008080808080808080808080808080808FE
:10364C0008080808080808080808080808080808EE
:10365C0008080808080808080808080808080808DE
:10366C0008080808080808080808080808080808CE
:10367C0008080808080808080808080808080808BE
:10368C0008080808080808080102030B0405060CC2
:08369C000708090D10000F0ED4
:00000001FF
