:100000000C942A000C9453070C94FD070C94A80838
:100010000C9447000C9447000C9447000C94470044
:100020000C9447000C9447000C9447000C94470034
:100030000C9447000C9447000C9447000C94470024
:100040000C941B0D0C9447000C9447000C94470033
:100050000C94470011241FBECFE5D8E0DEBFCDBF12
:1000600011E0A0E6B0E0E0ECF1E702C005900D92EF
:10007000AC32B107D9F711E0ACE2B1E001C01D929A
:10008000AD32B107E1F70E945D380C94DE380C9474
:100090000000EF92FF920F931F937B018C0120E0F1
:1000A00030E040E05FE40E94490388238CF0C801FF
:1000B000B70120E030E040E05FE40E94C1010E940F
:1000C000A9039B01AC01205030404040504806C07D
:1000D000C801B7010E94A9039B01AC01B901CA0183
:1000E0001F910F91FF90EF900895A0E0B0E0EBE733
:1000F000F0E00C94A738DC012B01FA019C919230BE
:1001000008F439C1EB018881823008F433C194309E
:1001100069F4843009F02FC111969C91119789815F
:10012000981709F428C1A1EAB0E025C1843009F488
:1001300021C18230A9F4923009F01DC19A01AD01AC
:1001400088E0EA010990AE01E90109929E0181501F
:10015000C1F7E201898111969C918923818308C1AD
:10016000923009F407C112962D903C901397EB0141
:100170008A819B811496AD90BD90CD90DC901797AD
:10018000EC80FD800E811F819101281B390BB90184
:1001900037FF04C066277727621B730B6032710537
:1001A0000CF061C0121613066CF537014801062EDB
:1001B00004C096948794779467940A94D2F721E0C8
:1001C00030E040E050E004C0220F331F441F551FB1
:1001D0006A95D2F721503040404050402E213F21B7
:1001E00040235123211531054105510521F021E01E
:1001F00030E040E050E079018A01E628F72808293C
:1002000019293CC0232BD1F1260E371E350146019A
:10021000062E04C096948794779467940A94D2F734
:1002200021E030E040E050E004C0220F331F441FC3
:10023000551F6A95D2F721503040404050402A2146
:100240003B214C215D21211531054105510521F04E
:1002500021E030E040E050E059016A01A628B728CB
:10026000C828D9280BC0821593052CF01C01AA249C
:10027000BB24650103C0EE24FF24870111969C91E5
:10028000D20111968C91981709F445C0992339F041
:10029000A80197012A193B094C095D0906C0A6016E
:1002A00095012E193F09400B510B57FD08C01182D3
:1002B0003382228224833583468357831DC081E0A5
:1002C00081833382228288279927DC01821B930B4A
:1002D000A40BB50B84839583A683B7830DC0220F2F
:1002E000331F441F551F24833583468357838281E0
:1002F000938101979383828324813581468157813D
:10030000DA01C9010197A109B1098F5F9F4FAF4F72
:10031000BF4328F30BC0918333822282EA0CFB1C7B
:100320000C1D1D1DE482F5820683178383E0808304
:10033000248135814681578157FF1AC0C901AA27F8
:1003400097FDA095BA2F81709070A070B0705695EF
:10035000479537952795822B932BA42BB52B848318
:100360009583A683B7838281938101969383828349
:10037000DF0101C0D201CD01CDB7DEB7E2E10C94BF
:10038000C338A0E2B0E0E7ECF1E00C94B338698345
:100390007A838B839C832D833E834F835887E9E048
:1003A000EE2EF12CEC0EFD1ECE010196B7010E943F
:1003B000D2048E010F5E1F4FCE010596B8010E9438
:1003C000D2048A8991E089278A8BC701B801AE01DE
:1003D000475E5F4F0E9475000E94FD03A096E6E015
:1003E0000C94CF38A0E2B0E0E8EFF1E00C94B33821
:1003F00069837A838B839C832D833E834F835887C5
:10040000F9E0EF2EF12CEC0EFD1ECE010196B701A6
:100410000E94D2048E010F5E1F4FCE010596B801D7
:100420000E94D204C701B801AE01475E5F4F0E942F
:1004300075000E94FD03A096E6E00C94CF38A0E280
:10044000B0E0E5E2F2E00C94A73869837A838B830D
:100450009C832D833E834F835887CE010196BE0136
:10046000675F7F4F0E94D204CE010596BE016F5E8A
:100470007F4F0E94D2049985923088F0898982301A
:10048000C8F0943019F4823051F404C0843029F457
:10049000923081F481EA90E0C6C0923049F420E0C5
:1004A0009A858A89981321E02A87CE010996BBC0D4
:1004B000823049F420E09A858A89981321E02A8BBA
:1004C000CE014196B0C02D843E844F8458886D88FB
:1004D0007E888F88988CEE24FF248701AA24BB2471
:1004E000650140E050E060E070E0E0E0F0E0C10174
:1004F00081709070892BE9F0E60CF71C081D191D1E
:100500009A01AB012A0D3B1D4C1D5D1D80E090E062
:10051000A0E0B0E0E614F7040805190520F481E036
:1005200090E0A0E0B0E0BA01A901480F591F6A1F8E
:100530007B1FAA0CBB1CCC1CDD1C97FE08C081E0F5
:1005400090E0A0E0B0E0A82AB92ACA2ADB2A3196B6
:10055000E032F10549F0660C771C881C991C569412
:10056000479437942794C3CFFA85EA892B893C892D
:100570008B859C85280F391F2E5F3F4F17C0CA01FE
:1005800081709070892B61F016950795F794E79428
:1005900080E090E0A0E0B0E8E82AF92A0A2B1B2BC3
:1005A00076956795579547952F5F3F4F77FDE7CF36
:1005B0000CC0440F551F661F771F17FD4160EE0CDE
:1005C000FF1C001F111F21503040403090E05907A0
:1005D00090E0690790E4790760F32B8F3C8FDB0193
:1005E000CA018F779070A070B07080349105A1051A
:1005F000B10561F447FD0AC0E114F10401051105DC
:1006000029F0405C5F4F6F4F7F4F40781A8EFE1786
:1006100011F081E08A8F4D8F5E8F6F8F78A383E01A
:10062000898FCE0149960E94FD03A096E2E10C94C9
:10063000C338A8E1B0E0EFE1F3E00C94B33869838C
:100640007A838B839C832D833E834F83588789E0F5
:10065000E82EF12CEC0EFD1ECE010196B7010E9492
:10066000D2048E010F5E1F4FCE010596B8010E9485
:10067000D2048985823040F08989823028F0C70110
:10068000B8010E944A0501C08FEF6896E6E00C941D
:10069000CF38A8E1B0E0EFE4F3E00C94B33869831D
:1006A0007A838B839C832D833E834F83588789E095
:1006B000E82EF12CEC0EFD1ECE010196B7010E9432
:1006C000D2048E010F5E1F4FCE010596B8010E9425
:1006D000D2048985823040F08989823028F0C701B0
:1006E000B8010E944A0501C08FEF6896E6E00C94BD
:1006F000CF38A8E1B0E0EFE7F3E00C94B3386983BA
:100700007A838B839C832D833E834F83588789E034
:10071000E82EF12CEC0EFD1ECE010196B7010E94D1
:10072000D2048E010F5E1F4FCE010596B8010E94C4
:10073000D2048985823040F08989823028F0C7014F
:10074000B8010E944A0501C081E06896E6E00C9479
:10075000CF38ACE0B0E0EFEAF3E00C94B73869834F
:100760007A838B839C83CE010196BE016B5F7F4FA2
:100770000E94D2048D81823061F1823050F1843048
:1007800021F48E81882351F12EC02F81388537FDC9
:1007900020C06E812F3131051CF06623F9F023C093
:1007A0008EE190E0821B930B29853A854B855C8511
:1007B00004C056954795379527958A95D2F76623B5
:1007C000B1F050954095309521953F4F4F4F5F4F79
:1007D0000EC020E030E040E050E009C02FEF3FEFD6
:1007E0004FEF5FE704C020E030E040E050E8B9019F
:1007F000CA012C96E2E00C94D338DF92EF92FF927C
:100800000F931F93FC01E480F58006811781D1804E
:100810008081823048F480E090E0A0E1B0E0E82AF6
:10082000F92A0A2B1B2BA5C0843009F49FC0823003
:1008300021F4EE24FF24870105C0E114F104010531
:10084000110519F4E0E0F0E096C0628173819FEF3A
:10085000623879070CF05BC022E83FEF261B370BAC
:100860002A3131052CF020E030E040E050E02AC091
:10087000B801A701022E04C0769567955795479554
:100880000A94D2F781E090E0A0E0B0E004C0880FC5
:10089000991FAA1FBB1F2A95D2F70197A109B10979
:1008A0008E219F21A023B1230097A105B10521F03E
:1008B00081E090E0A0E0B0E09A01AB01282B392B59
:1008C0004A2B5B2BDA01C9018F779070A070B07052
:1008D00080349105A105B10539F427FF09C0205CDA
:1008E0003F4F4F4F5F4F04C0215C3F4F4F4F5F4F13
:1008F000E0E0F0E02030A0E03A07A0E04A07A0E402
:100900005A0710F0E1E0F0E079018A0127C0603871
:10091000710564F5FB01E158FF4FD801C7018F77DE
:100920009070A070B07080349105A105B10539F4C4
:10093000E7FE0DC080E490E0A0E0B0E004C08FE3EB
:1009400090E0A0E0B0E0E80EF91E0A1F1B1F17FFA1
:1009500005C016950795F794E794319687E01695AC
:100960000795F794E7948A95D1F705C0EE24FF2404
:100970008701EFEFF0E06E2F679566276795902F60
:100980009F77D794DD24D7948E2F8695492F462BB9
:10099000582F5D29B701CA011F910F91FF90EF9069
:1009A000DF900895FC01DB01408151812281622F9B
:1009B0006F7770E0221F2227221F9381892F880FD3
:1009C000822B282F30E0991F9927991F11969C930D
:1009D000119721153105A9F54115510561057105DD
:1009E00011F482E037C082E89FEF13969C938E93B8
:1009F00012979A01AB0167E0220F331F441F551F66
:100A00006A95D1F783E08C930DC0220F331F441FEA
:100A1000551F12968D919C911397019713969C9355
:100A20008E931297203080E0380780E0480780E4FA
:100A3000580758F314962D933D934D935C93179755
:100A400008952F3F310579F4411551056105710570
:100A500019F484E08C93089564FF03C081E08C93C3
:100A600012C01C9210C02F57304013963C932E9307
:100A7000129783E08C9387E0440F551F661F771F02
:100A80008A95D1F7706414964D935D936D937C9322
:100A9000179708951F93DC01FB019C91923008F495
:100AA00047C08081823008F443C0943051F41196DD
:100AB0001C91843099F58181682F70E0611B710968
:100AC0003FC0843021F0923031F48230B9F181811D
:100AD000882389F12DC011961C9111978230F1F075
:100AE00081811817D9F412962D913C911397828128
:100AF00093818217930794F028173907BCF0149656
:100B00008D919D910D90BC91A02D248135814681C0
:100B10005781281739074A075B0718F4112341F05A
:100B20000AC082179307A407B50740F4112319F0F0
:100B300061E070E005C06FEF7FEF02C060E070E041
:100B4000CB011F910895DF93CF93CDB7DEB7AFE50B
:100B5000B0E0EFE5F0E0808180688C93CF91DF9189
:100B60000895DF93CF93CDB7DEB7AFE5B0E0EFE503
:100B7000F0E080818F778C93CF91DF910895DF93A0
:100B8000CF9300D00F92CDB7DEB789838981282F0C
:100B900030E03B832A838A819B818130910589F0F3
:100BA0002A813B8122303105A1F08A819B81009707
:100BB000B9F4ABE5B0E0EBE5F0E0808180648C93C4
:100BC0000FC0ABE5B0E0EBE5F0E0808180688C938E
:100BD00007C0ABE5B0E0EBE5F0E0808180628C938C
:100BE0000F900F900F90CF91DF910895DF93CF93E7
:100BF00000D00F92CDB7DEB789838981282F30E0EE
:100C00003B832A838A819B818130910589F02A81E7
:100C10003B8122303105A1F08A819B810097B9F494
:100C2000ABE5B0E0EBE5F0E080818F7B8C930FC00B
:100C3000ABE5B0E0EBE5F0E080818F778C9307C007
:100C4000ABE5B0E0EBE5F0E080818F7D8C930F9019
:100C50000F900F90CF91DF910895DF93CF93CDB791
:100C6000DEB72A970FB6F894DEBF0FBECDBF8983DB
:100C70006A838981282F30E03A87298789859A8578
:100C80008130910509F470C029853A8522303105FB
:100C900009F4CFC089859A85009709F0FBC083E0ED
:100CA00062E040E00E94D40983E062E041E00E94FB
:100CB000DB0A8A81282F30E038872F838F8198853F
:100CC0008130910521F12F813885223031052CF4B6
:100CD0008F819885009761F0DDC02F8138852230A3
:100CE000310521F18F8198858330910571F1D2C052
:100CF000A5E5B0E0E5E5F0E080818E7F8C93A5E589
:100D0000B0E0E5E5F0E080818D7F8C93C3C0A5E580
:100D1000B0E0E5E5F0E0808181608C93A5E5B0E08E
:100D2000E5E5F0E080818D7F8C93B4C0A5E5B0E06F
:100D3000E5E5F0E080818E7F8C93A5E5B0E0E5E508
:100D4000F0E0808182608C93A5C0A5E5B0E0E5E588
:100D5000F0E0808181608C93A5E5B0E0E5E5F0E00E
:100D6000808182608C9396C083E063E040E00E94C3
:100D7000D40983E063E041E00E94DB0A8A81282FE6
:100D800030E03E832D838D819E818130910521F15C
:100D90002D813E81223031052CF48D819E8100977A
:100DA00061F078C02D813E812230310521F18D81A5
:100DB0009E818330910571F16DC0A5E5B0E0E5E558
:100DC000F0E080818E7F8C93A5E5B0E0E5E5F0E072
:100DD00080818D7F8C935EC0A5E5B0E0E5E5F0E015
:100DE000808181608C93A5E5B0E0E5E5F0E080814D
:100DF0008D7F8C934FC0A5E5B0E0E5E5F0E0808104
:100E00008E7F8C93A5E5B0E0E5E5F0E0808182601F
:100E10008C9340C0A5E5B0E0E5E5F0E0808181601D
:100E20008C93A5E5B0E0E5E5F0E0808182608C93ED
:100E300031C081E062E040E00E94D40981E062E0DC
:100E400041E00E94DB0A8A81282F30E03C832B831B
:100E50008B819C818230910531F02B813C81233044
:100E6000310549F010C0A5E5B0E0E5E5F0E080818E
:100E70008F7B8C930FC0A5E5B0E0E5E5F0E08081C5
:100E800080648C9307C0A5E5B0E0E5E5F0E08081E3
:100E90008F7B8C932A960FB6F894DEBF0FBECDBF22
:100EA000CF91DF9108951F920F920FB60F921124E8
:100EB0002F933F934F935F936F937F938F939F9362
:100EC000AF93BF93EF93FF93DF93CF93CDB7DEB78D
:100ED0002E97DEBFCDBF81E060E041E00E94DB0ADB
:100EE00080E090E0AAEFB4E48B879C87AD87BE8753
:100EF0006B857C858D859E8520E030E04AEF54E44B
:100F00000E941F02DC01CB018F839887A987BA87D3
:100F10006F81788589859A8520E030E040E85FE33D
:100F20000E94790388232CF481E090E09E838D83D6
:100F30003FC06F81788589859A8520E03FEF4FE734
:100F400057E40E94190318164CF56B857C858D8536
:100F50009E8520E030E040E251E40E941F02DC0167
:100F6000CB01BC01CD010E944900DC01CB019E8375
:100F70008D830FC088EC90E09C838B838B819C8158
:100F80000197F1F79C838B838D819E8101979E83CE
:100F90008D838D819E81009769F714C06F8178855C
:100FA00089859A850E944900DC01CB019E838D834F
:100FB0008D819E819A83898389819A810197F1F736
:100FC0009A83898381E060E040E00E94DB0A2E96EC
:100FD000DEBFCDBFCF91DF91FF91EF91BF91AF9178
:100FE0009F918F917F916F915F914F913F912F9141
:100FF0000F900FBE0F901F90189578941F920F922C
:101000000FB60F9211242F933F934F935F936F93DB
:101010007F938F939F93AF93BF93EF93FF93DF9350
:10102000CF93CDB7DEB72E97DEBFCDBF81E061E0B5
:1010300041E00E94DB0A80E090E0AAEFB4E48B87F5
:101040009C87AD87BE876B857C858D859E8520E0DE
:1010500030E04AEF54E40E941F02DC01CB018F8391
:101060009887A987BA876F81788589859A8520E0D6
:1010700030E040E85FE30E94790388232CF481E0AC
:1010800090E09E838D833FC06F81788589859A85A6
:1010900020E03FEF4FE757E40E94190318164CF584
:1010A0006B857C858D859E8520E030E040E251E4B3
:1010B0000E941F02DC01CB01BC01CD010E9449004E
:1010C000DC01CB019E838D830FC088EC90E09C8374
:1010D0008B838B819C810197F1F79C838B838D811E
:1010E0009E8101979E838D838D819E81009769F7F4
:1010F00014C06F81788589859A850E944900DC013A
:10110000CB019E838D838D819E819A838983898182
:101110009A810197F1F79A83898381E061E040E049
:101120000E94DB0A2E96DEBFCDBFCF91DF91FF91EB
:10113000EF91BF91AF919F918F917F916F915F914F
:101140004F913F912F910F900FBE0F901F901895C8
:101150001F920F920FB60F9211242F933F934F932C
:101160005F936F937F938F939F93AF93BF93EF930F
:10117000FF93DF93CF93CDB7DEB72E97DEBFCDBF02
:1011800081E067E041E00E94DB0A80E090E0AAEFA6
:10119000B4E48B879C87AD87BE876B857C858D8506
:1011A0009E8520E030E04AEF54E40E941F02DC01FB
:1011B000CB018F839887A987BA876F8178858985C6
:1011C0009A8520E030E040E85FE30E9479038823BD
:1011D0002CF481E090E09E838D833FC06F81788501
:1011E00089859A8520E03FEF4FE757E40E94190375
:1011F00018164CF56B857C858D859E8520E030E04A
:1012000040E251E40E941F02DC01CB01BC01CD0190
:101210000E944900DC01CB019E838D830FC088ECC6
:1012200090E09C838B838B819C810197F1F79C8359
:101230008B838D819E8101979E838D838D819E817D
:10124000009769F714C06F81788589859A850E9417
:101250004900DC01CB019E838D838D819E819A8321
:10126000898389819A810197F1F79A83898381E043
:1012700067E040E00E94DB0A2E96DEBFCDBFCF9133
:10128000DF91FF91EF91BF91AF919F918F917F91EE
:101290006F915F914F913F912F910F900FBE0F90E3
:1012A0001F901895DF93CF9300D000D0CDB7DEB755
:1012B00089836A838981282F30E03C832B838B814B
:1012C0009C8181309105D1F02B813C812230310508
:1012D0002CF48B819C81009761F01EC02B813C8196
:1012E0002230310581F08B819C818330910581F022
:1012F00013C0EAE3F0E08A8180830EC0E7E3F0E008
:101300008A81808309C0E4E3F0E08A81808304C09D
:10131000E1E3F0E08A8180830F900F900F900F90AF
:10132000CF91DF910895DF93CF9300D000D0CDB758
:10133000DEB789836A838981282F30E03C832B8341
:101340008B819C8181309105D1F02B813C812230B1
:1013500031052CF48B819C81009761F01EC02B819C
:101360003C812230310581F08B819C818330910555
:1013700081F013C0EBE3F0E08A8180830EC0E8E3E4
:10138000F0E08A81808309C0E5E3F0E08A81808310
:1013900004C0E2E3F0E08A8180830F900F900F9009
:1013A0000F90CF91DF910895DF93CF93CDB7DEB744
:1013B00027970FB6F894DEBF0FBECDBF89836A832F
:1013C0004B838981843008F0EDC08A81883008F031
:1013D000E9C08B81813009F06EC08981282F30E00F
:1013E0003F832E838E819F818130910549F12E812B
:1013F0003F81223031052CF48E819F81009761F06E
:101400005AC02E813F812230310571F18E819F813A
:1014100083309105E9F14FC0AAE3B0E0EAE3F0E0E0
:101420008081482F8A81282F30E081E090E0022ED1
:1014300002C0880F991F0A94E2F7842B8C933BC05B
:10144000A7E3B0E0E7E3F0E08081482F8A81282F0E
:1014500030E081E090E0022E02C0880F991F0A94CC
:10146000E2F7842B8C9327C0A4E3B0E0E4E3F0E040
:101470008081482F8A81282F30E081E090E0022E81
:1014800002C0880F991F0A94E2F7842B8C9313C033
:10149000A1E3B0E0E1E3F0E08081482F8A81282FCA
:1014A00030E081E090E0022E02C0880F991F0A947C
:1014B000E2F7842B8C938B81882309F073C0898198
:1014C000282F30E03D832C838C819D8181309105D4
:1014D00059F12C813D81223031052CF48C819D8184
:1014E000009769F05FC02C813D812230310589F180
:1014F0008C819D818330910509F440C053C0AAE3DB
:10150000B0E0EAE3F0E08081482F8A81282F30E0C4
:1015100081E090E0022E02C0880F991F0A94E2F742
:10152000809584238C933EC0A7E3B0E0E7E3F0E02E
:101530008081482F8A81282F30E081E090E0022EC0
:1015400002C0880F991F0A94E2F7809584238C9338
:1015500029C0A4E3B0E0E4E3F0E08081482F8A8171
:10156000282F30E081E090E0022E02C0880F991F02
:101570000A94E2F7809584238C9314C0A1E3B0E031
:10158000E1E3F0E08081482F8A81282F30E081E07C
:1015900090E0022E02C0880F991F0A94E2F780950E
:1015A00084238C9327960FB6F894DEBF0FBECDBF71
:1015B000CF91DF910895DF93CF93CDB7DEB7279713
:1015C0000FB6F894DEBF0FBECDBF89836A834B830D
:1015D0008981843008F0EDC08A81883008F0E9C044
:1015E0008B81813009F06EC08981282F30E03F83E4
:1015F0002E838E819F818130910549F12E813F811B
:10160000223031052CF48E819F81009761F05AC001
:101610002E813F812230310571F18E819F8183308F
:101620009105E9F14FC0ABE3B0E0EBE3F0E080817E
:10163000482F8A81282F30E081E090E0022E02C0FE
:10164000880F991F0A94E2F7842B8C933BC0A8E380
:10165000B0E0E8E3F0E08081482F8A81282F30E075
:1016600081E090E0022E02C0880F991F0A94E2F7F1
:10167000842B8C9327C0A5E3B0E0E5E3F0E0808104
:10168000482F8A81282F30E081E090E0022E02C0AE
:10169000880F991F0A94E2F7842B8C9313C0A2E35E
:1016A000B0E0E2E3F0E08081482F8A81282F30E02B
:1016B00081E090E0022E02C0880F991F0A94E2F7A1
:1016C000842B8C938B81882309F073C08981282F08
:1016D00030E03D832C838C819D818130910559F1CF
:1016E0002C813D81223031052CF48C819D81009725
:1016F00069F05FC02C813D812230310589F18C81F8
:101700009D818330910509F440C053C0ABE3B0E044
:10171000EBE3F0E08081482F8A81282F30E081E0E0
:1017200090E0022E02C0880F991F0A94E2F780957C
:1017300084238C933EC0A8E3B0E0E8E3F0E080812E
:10174000482F8A81282F30E081E090E0022E02C0ED
:10175000880F991F0A94E2F7809584238C9329C0FF
:10176000A5E3B0E0E5E3F0E08081482F8A81282FEF
:1017700030E081E090E0022E02C0880F991F0A94A9
:10178000E2F7809584238C9314C0A2E3B0E0E2E3F7
:10179000F0E08081482F8A81282F30E081E090E0BE
:1017A000022E02C0880F991F0A94E2F780958423C5
:1017B0008C9327960FB6F894DEBF0FBECDBFCF91A6
:1017C000DF910895DF93CF9300D000D00F92CDB773
:1017D000DEB78A836B838A81843008F06BC08B818B
:1017E000883008F067C08A81282F30E03D832C8341
:1017F0004C815D814130510541F18C819D81823068
:10180000910534F42C813D812115310561F052C0E0
:101810004C815D814230510551F18C819D81833035
:101820009105B9F147C0E9E3F0E08081282F30E06D
:101830008B81882F90E0A90102C0559547958A9524
:10184000E2F7CA018170898335C0E6E3F0E0808168
:10185000282F30E08B81882F90E0A90102C0559598
:1018600047958A95E2F7CA018170898323C0E3E333
:10187000F0E08081282F30E08B81882F90E0A90153
:1018800002C0559547958A95E2F7CA018170898310
:1018900011C0E0E3F0E08081282F30E08B81882FB9
:1018A00090E0A90102C0559547958A95E2F7CA01D3
:1018B0008170898389810F900F900F900F900F9006
:1018C000CF91DF910895DF93CF93CDB7DEB7A7E235
:1018D000B0E0E7E2F0E0808180648C93A7E2B0E0C2
:1018E000E7E2F0E080818F778C93A7E2B0E0E7E257
:1018F000F0E080818F7D8C93A6E2B0E0E6E2F0E03C
:10190000808180688C93A6E2B0E0E6E2F0E080811E
:1019100080648C93A6E2B0E0E6E2F0E080818F7D07
:101920008C93A0E5B0E0E0E5F0E080818F7D8C93C2
:10193000A0E5B0E0E0E5F0E080818F7B8C93A0E54E
:10194000B0E0E0E5F0E080818F778C93A6E2B0E034
:10195000E6E2F0E0808180628C93A6E2B0E0E6E20D
:10196000F0E0808180688C93CF91DF910895DF93C0
:10197000CF930F92CDB7DEB78983A7E2B0E0E7E25D
:10198000F0E08081807E8C93A7E2B0E0E7E2F0E0B7
:1019900090818981892B8C93A6E2B0E0E6E2F0E0A9
:1019A000808180648C93E6E2F0E0808182958F7084
:1019B000882F90E0817090700097A9F3A6E2B0E0C4
:1019C000E6E2F0E0808180618C93E4E2F0E08081E7
:1019D00091810F90CF91DF910895DF93CF930F9274
:1019E000CDB7DEB78983A7E2B0E0E7E2F0E080811F
:1019F000807E8C93A7E2B0E0E7E2F0E090818981FD
:101A0000892B8C93A6E2B0E0E6E2F0E0808180646E
:101A10008C930F90CF91DF910895DF93CF93CDB743
:101A2000DEB7A6E2B0E0E6E2F0E0808188608C9369
:101A3000CF91DF9108951F920F920FB60F9211244C
:101A40002F933F934F935F936F937F938F939F93C6
:101A5000AF93BF93EF93FF93DF93CF9300D0CDB7B6
:101A6000DEB71A821982E4E2F0E080819181CC0134
:101A7000A0E0B0E028E833E140E050E0BC01CD0157
:101A80000E946638DC01CB01072E7AE0B695A79557
:101A9000979587957A95D1F7702D9A83898381E000
:101AA00060E00E94C71589819A81CC01A0E0B0E076
:101AB000BC01CD010E94EB1589819A8121E0813919
:101AC000920780F481E067E040E00E94DB0A81E059
:101AD00061E040E00E94DB0A81E060E040E00E94BB
:101AE000DB0A53C089819A8121E081399207B0F0E5
:101AF00089819A8124E0813B920780F481E067E04C
:101B000040E00E94DB0A81E061E040E00E94DB0AE5
:101B100081E060E041E00E94DB0A37C089819A8160
:101B200024E0813B9207B0F089819A8129E0853CCD
:101B3000920780F481E067E040E00E94DB0A81E0E8
:101B400060E040E00E94DB0A81E061E041E00E9449
:101B5000DB0A1BC089819A8129E0853C9207A8F0A5
:101B600089819A8123E18838920778F481E067E0DF
:101B700041E00E94DB0A81E060E040E00E94DB0A75
:101B800081E061E040E00E94DB0A0F900F90CF916E
:101B9000DF91FF91EF91BF91AF919F918F917F91D5
:101BA0006F915F914F913F912F910F900FBE0F90CA
:101BB0001F901895DF93CF93CDB7DEB780E061E03B
:101BC0000E94520981E061E00E94520982E061E0D6
:101BD0000E94520983E061E00E945209CF91DF9197
:101BE0000895DF93CF9300D00F92CDB7DEB78A83ED
:101BF0006B838B81882371F48A81882F90E0FC01AC
:101C0000E755FF4F80818095898380E069810E943C
:101C100093090FC08B81813061F48A81882F90E015
:101C2000FC01E755FF4F8081898380E069810E9434
:101C300093090F900F900F90CF91DF910895DF934C
:101C4000CF93CDB7DEB780E06FEF0E949309CF91BD
:101C5000DF910895DF93CF93CDB7DEB7E8970FB646
:101C6000F894DEBF0FBECDBF83E06FEF0E94520934
:101C700081E063E041E00E94D40981E064E041E05A
:101C80000E94D40981E065E041E00E94D40980E02F
:101C900090E0A8E4B2E48DAB9EABAFABB8AF6DA95A
:101CA0007EA98FA998AD20E030E04AEF54E40E946D
:101CB0001F02DC01CB0189AB9AABABABBCAB69A912
:101CC0007AA98BA99CA920E030E040E85FE30E945C
:101CD000790388232CF481E090E098AB8FA73FC074
:101CE00069A97AA98BA99CA920E03FEF4FE757E4A7
:101CF0000E94190318164CF56DA97EA98FA998ADFD
:101D000020E030E040E251E40E941F02DC01CB0100
:101D1000BC01CD010E944900DC01CB0198AB8FA72B
:101D20000FC088EC90E09EA78DA78DA59EA501977A
:101D3000F1F79EA78DA78FA598A9019798AB8FA7BC
:101D40008FA598A9009769F714C069A97AA98BA9EA
:101D50009CA90E944900DC01CB0198AB8FA78FA5FD
:101D600098A99CA78BA78BA59CA50197F1F79CA789
:101D70008BA780E20E94301080E20E94301080E841
:101D80000E94301080E090E0A0E0B0E48FA398A71C
:101D9000A9A7BAA76FA178A589A59AA520E030E0E8
:101DA0004AEF54E40E941F02DC01CB018BA39CA3E9
:101DB000ADA3BEA36BA17CA18DA19EA120E030E0CC
:101DC00040E85FE30E94790388232CF481E090E0EF
:101DD0009AA389A33FC06BA17CA18DA19EA120E005
:101DE0003FEF4FE757E40E94190318164CF56FA117
:101DF00078A589A59AA520E030E040E251E40E9450
:101E00001F02DC01CB01BC01CD010E944900DC01B5
:101E1000CB019AA389A30FC088EC90E098A38F8F81
:101E20008F8D98A10197F1F798A38F8F89A19AA11F
:101E300001979AA389A389A19AA1009769F714C071
:101E40006BA17CA18DA19EA10E944900DC01CB0168
:101E50009AA389A389A19AA19E8F8D8F8D8D9E8D26
:101E60000197F1F79E8F8D8F80E00E94301080ECFB
:101E70000E94301080E090E0A0E8BFE3898F9A8F45
:101E8000AB8FBC8F698D7A8D8B8D9C8D20E030E07F
:101E90004AEF54E40E941F02DC01CB018D8B9E8B24
:101EA000AF8BB88F6D897E898F89988D20E030E067
:101EB00040E85FE30E94790388232CF481E090E0FE
:101EC0009C8B8B8B3FC06D897E898F89988D20E09C
:101ED0003FEF4FE757E40E94190318164CF5698D40
:101EE0007A8D8B8D9C8D20E030E040E251E40E94A1
:101EF0001F02DC01CB01BC01CD010E944900DC01C5
:101F0000CB019C8B8B8B0FC088EC90E09A8B898BDC
:101F100089899A890197F1F79A8B898B8B899C899A
:101F200001979C8B8B8B8B899C89009769F714C0D8
:101F30006D897E898F89988D0E944900DC01CB01D3
:101F40009C8B8B8B8B899C89988B8F878F859889AD
:101F50000197F1F7988B8F8780E00E94301080E125
:101F60000E94301080E090E0A0E0B0E48B879C8776
:101F7000AD87BE876B857C858D859E8520E030E0B2
:101F80004AEF54E40E941F02DC01CB018F83988743
:101F9000A987BA876F81788589859A8520E030E0A6
:101FA00040E85FE30E94790388232CF481E090E00D
:101FB0009E838D833FC06F81788589859A8520E0D7
:101FC0003FEF4FE757E40E94190318164CF56B8555
:101FD0007C858D859E8520E030E040E251E40E94C2
:101FE0001F02DC01CB01BC01CD010E944900DC01D4
:101FF000CB019E838D830FC088EC90E09C838B8304
:102000008B819C810197F1F79C838B838D819E81CD
:1020100001979E838D838D819E81009769F714C0FF
:102020006F81788589859A850E944900DC01CB0102
:102030009E838D838D819E819A83898389819A81F4
:102040000197F1F79A83898381E080932C01E896C8
:102050000FB6F894DEBF0FBECDBFCF91DF910895CC
:102060000F931F93DF93CF93CDB7DEB7C754D04004
:102070000FB6F894DEBF0FBECDBFFE01E95BFF4F88
:10208000808381E063E040E00E94DB0A81E064E05D
:1020900040E00E94DB0AFE01E95BFF4F80818295F0
:1020A0008F70982F917083E064E0492F0E94DB0AC3
:1020B000FE01E95BFF4F8081829586958770982F9E
:1020C000917083E065E0492F0E94DB0AFE01E95B25
:1020D000FF4F80818295869586958370982F9170A9
:1020E00083E066E0492F0E94DB0AFE01E95BFF4FB7
:1020F0008081982F991F9927991F83E067E0492FC6
:102100000E94DB0A81E065E041E00E94DB0AFE01FB
:10211000ED5BFF4F80E090E0A0E8BFE38083918318
:10212000A283B3838E01015C1F4FFE01ED5BFF4F65
:10213000608171818281938120E030E04AEF54E434
:102140000E941F02DC01CB01F80180839183A283EE
:10215000B383FE01FF96608171818281938120E0CB
:1021600030E040E85FE30E94790388232CF481E0AB
:1021700090E09EAF8DAF46C0FE01FF9660817181F9
:102180008281938120E03FEF4FE757E40E941903DB
:10219000181664F5FE01ED5BFF4F6081718182814D
:1021A000938120E030E040E251E40E941F02DC0114
:1021B000CB01BC01CD010E944900DC01CB019EAFE7
:1021C0008DAF0FC088EC90E09CAF8BAF8BAD9CAD1A
:1021D0000197F1F79CAF8BAF8DAD9EAD01979EAF90
:1021E0008DAF8DAD9EAD009769F716C0FE01FF96CD
:1021F00060817181828193810E944900DC01CB0161
:102200009EAF8DAF8DAD9EAD9AAF89AF89AD9AADC2
:102210000197F1F79AAF89AF81E065E040E00E9455
:10222000DB0A80E090E0A0E8BFE38DAB9EABAFABF4
:10223000B8AF6DA97EA98FA998AD20E030E04AEF34
:1022400054E40E941F02DC01CB0189AB9AABABAB1B
:10225000BCAB69A97AA98BA99CA920E030E040E831
:102260005FE30E94790388232CF481E090E098AB2F
:102270008FA73FC069A97AA98BA99CA920E03FEF4D
:102280004FE757E40E94190318164CF56DA97EA973
:102290008FA998AD20E030E040E251E40E941F0297
:1022A000DC01CB01BC01CD010E944900DC01CB0166
:1022B00098AB8FA70FC088EC90E09EA78DA78DA547
:1022C0009EA50197F1F79EA78DA78FA598A90197C5
:1022D00098AB8FA78FA598A9009769F714C069A933
:1022E0007AA98BA99CA90E944900DC01CB0198AB7B
:1022F0008FA78FA598A99CA78BA78BA59CA50197B5
:10230000F1F79CA78BA780912C01882309F420C1A9
:10231000FE01E95BFF4F8081982F917083E064E0BC
:10232000492F0E94DB0AFE01E95BFF4F8081869501
:10233000982F917083E065E0492F0E94DB0AFE012F
:10234000E95BFF4F808186958695982F917083E099
:1023500066E0492F0E94DB0AFE01E95BFF4F8081A6
:10236000869586958695982F917083E067E0492F32
:102370000E94DB0A81E065E041E00E94DB0A80E028
:1023800090E0A0E8BFE38FA398A7A9A7BAA76FA181
:1023900078A589A59AA520E030E04AEF54E40E9490
:1023A0001F02DC01CB018BA39CA3ADA3BEA36BA139
:1023B0007CA18DA19EA120E030E040E85FE30E9477
:1023C000790388232CF481E090E09AA389A33FC08D
:1023D0006BA17CA18DA19EA120E03FEF4FE757E4C8
:1023E0000E94190318164CF56FA178A589A59AA526
:1023F00020E030E040E251E40E941F02DC01CB010A
:10240000BC01CD010E944900DC01CB019AA389A344
:102410000FC088EC90E098A38F8F8F8D98A10197C3
:10242000F1F798A38F8F89A19AA101979AA389A305
:1024300089A19AA1009769F714C06BA17CA18DA115
:102440009EA10E944900DC01CB019AA389A389A126
:102450009AA19E8F8D8F8D8D9E8D0197F1F79E8F06
:102460008D8F81E065E040E00E94DB0A80E090E033
:10247000A0E8BFE3898F9A8FAB8FBC8F698D7A8D6F
:102480008B8D9C8D20E030E04AEF54E40E941F02C7
:10249000DC01CB018D8B9E8BAF8BB88F6D897E89D4
:1024A0008F89988D20E030E040E85FE30E94790357
:1024B00088232CF481E090E09C8B8B8B3FC06D894E
:1024C0007E898F89988D20E03FEF4FE757E40E9487
:1024D000190318164CF5698D7A8D8B8D9C8D20E033
:1024E00030E040E251E40E941F02DC01CB01BC015C
:1024F000CD010E944900DC01CB019C8B8B8B0FC06E
:1025000088EC90E09A8B898B89899A890197F1F7F9
:102510009A8B898B8B899C8901979C8B8B8B8B8960
:102520009C89009769F714C06D897E898F89988D81
:102530000E944900DC01CB019C8B8B8B8B899C8991
:10254000988B8F878F8598890197F1F7988B8F8764
:1025500080E090E0A0E0B0E48B879C87AD87BE87E9
:102560006B857C858D859E8520E030E04AEF54E4C4
:102570000E941F02DC01CB018F839887A987BA874D
:102580006F81788589859A8520E030E040E85FE3B7
:102590000E94790388232CF481E090E09E838D8350
:1025A0003FC06F81788589859A8520E03FEF4FE7AE
:1025B00057E40E94190318164CF56B857C858D85B0
:1025C0009E8520E030E040E251E40E941F02DC01E1
:1025D000CB01BC01CD010E944900DC01CB019E83EF
:1025E0008D830FC088EC90E09C838B838B819C81D2
:1025F0000197F1F79C838B838D819E8101979E8348
:102600008D838D819E81009769F714C06F817885D5
:1026100089859A850E944900DC01CB019E838D83C8
:102620008D819E819A83898389819A810197F1F7AF
:102630009A838983C95BDF4F0FB6F894DEBF0FBE64
:10264000CDBFCF91DF911F910F910895DF93CF936D
:10265000CDB7DEB7AB970FB6F894DEBF0FBECDBFD8
:102660008BA781E063E041E00E94DB0A81E064E047
:1026700040E00E94DB0A8BA582958F70982F9170A5
:1026800083E064E0492F0E94DB0A8BA58295869542
:102690008770982F917083E065E0492F0E94DB0AD4
:1026A0008BA58295869586958370982F917083E08F
:1026B00066E0492F0E94DB0A8BA5982F991F992766
:1026C000991F83E067E0492F0E94DB0A81E065E003
:1026D00041E00E94DB0A80E090E0A0E8BFE38FA326
:1026E00098A7A9A7BAA76FA178A589A59AA520E060
:1026F00030E04AEF54E40E941F02DC01CB018BA3BF
:102700009CA3ADA3BEA36BA17CA18DA19EA120E043
:1027100030E040E85FE30E94790388232CF481E0F5
:1027200090E09AA389A33FC06BA17CA18DA19EA13B
:1027300020E03FEF4FE757E40E94190318164CF5CD
:102740006FA178A589A59AA520E030E040E251E488
:102750000E941F02DC01CB01BC01CD010E94490097
:10276000DC01CB019AA389A30FC088EC90E098A369
:102770008F8F8F8D98A10197F1F798A38F8F89A1E3
:102780009AA101979AA389A389A19AA1009769F7B1
:1027900014C06BA17CA18DA19EA10E944900DC0107
:1027A000CB019AA389A389A19AA19E8F8D8F8D8D2C
:1027B0009E8D0197F1F79E8F8D8F81E065E040E05F
:1027C0000E94DB0A8BA5982F917083E064E0492F6B
:1027D0000E94DB0A8BA58695982F917083E065E0B7
:1027E000492F0E94DB0A8BA586958695982F9170BC
:1027F00083E066E0492F0E94DB0A8BA586958695CB
:102800008695982F917083E067E0492F0E94DB0A3C
:1028100081E065E041E00E94DB0A80E090E0A0E812
:10282000BFE3898F9A8FAB8FBC8F698D7A8D8B8D2B
:102830009C8D20E030E04AEF54E40E941F02DC014E
:10284000CB018D8B9E8BAF8BB88F6D897E898F89E5
:10285000988D20E030E040E85FE30E947903882310
:102860002CF481E090E09C8B8B8B3FC06D897E893E
:102870008F89988D20E03FEF4FE757E40E941903BE
:1028800018164CF5698D7A8D8B8D9C8D20E030E08B
:1028900040E251E40E941F02DC01CB01BC01CD01EA
:1028A0000E944900DC01CB019C8B8B8B0FC088EC14
:1028B00090E09A8B898B89899A890197F1F79A8B95
:1028C000898B8B899C8901979C8B8B8B8B899C89AD
:1028D000009769F714C06D897E898F89988D0E9451
:1028E0004900DC01CB019C8B8B8B8B899C89988B5D
:1028F0008F878F8598890197F1F7988B8F8781E073
:1029000065E040E00E94DB0A80E090E0A0E0B0E4F7
:102910008B879C87AD87BE876B857C858D859E85E3
:1029200020E030E04AEF54E40E941F02DC01CB01BA
:102930008F839887A987BA876F81788589859A85DB
:1029400020E030E040E85FE30E94790388232CF424
:1029500081E090E09E838D833FC06F81788589857B
:102960009A8520E03FEF4FE757E40E9419031816BD
:102970004CF56B857C858D859E8520E030E040E2BE
:1029800051E40E941F02DC01CB01BC01CD010E9479
:102990004900DC01CB019E838D830FC088EC90E061
:1029A0009C838B838B819C810197F1F79C838B8324
:1029B0008D819E8101979E838D838D819E8100975D
:1029C00069F714C06F81788589859A850E944900CE
:1029D000DC01CB019E838D838D819E819A838983C7
:1029E00089819A810197F1F79A838983AB960FB613
:1029F000F894DEBF0FBECDBFCF91DF910895DF9376
:102A0000CF9300D000D000D0CDB7DEB79C838B83AE
:102A10006D834E838D816E810E94C7151A82198243
:102A20008AC08D81882F90E0AC0142955295507FED
:102A30005427407F54278E81282F30E08A81882FA9
:102A400090E0820F931F840F951F8031910594F4BD
:102A50008981882379F48A81282F30E08B819C81B9
:102A6000FC01E20FF31F80810E9426138A818F5F91
:102A70008A8361C08D81882F90E0AC014295529588
:102A8000507F5427407F54278E81282F30E08A8141
:102A9000882F90E0820F931F840F951F803191053E
:102AA00014F18D81882F90E0AC0142955295507FB2
:102AB0005427407F54278E81282F30E08A81882F29
:102AC00090E0820F931F840F951F803291055CF474
:102AD0008981882341F481E06E810E94C715898134
:102AE0008F5F898328C08D81882F90E0AC0142954B
:102AF0005295507F5427407F54278E81282F30E0F5
:102B00008A81882F90E0820F931F840F951F803257
:102B100091058CF48981813071F48A81282F30E00D
:102B20008B819C81FC01E20FF31F80810E942613A0
:102B30008A818F5F8A838A81282F30E08B819C81F4
:102B4000FC01E20FF31F80818823C1F08D81882F63
:102B500090E0AC0142955295507F5427407F542716
:102B60008E81282F30E08A81882F90E0820F931F7A
:102B7000840F951F803291050CF453CF26960FB623
:102B8000F894DEBF0FBECDBFCF91DF910895DF93E4
:102B9000CF9300D00F92CDB7DEB78A836B838A8143
:102BA000882F90E0002496958795079496958795B1
:102BB0000794982F802D982F8B81890F8983898185
:102BC0008068898389810E9430100F900F900F9048
:102BD000CF91DF910895DF93CF93CDB7DEB768979C
:102BE0000FB6F894DEBF0FBECDBF6D8B7E8B8F8B83
:102BF000988F1F82188619861A861E821D82198256
:102C00001A821B821C8245C08D899E89AF89B88D2E
:102C10002AE030E040E050E0BC01CD010E94853860
:102C2000DC01CB0189839A83AB83BC832D813E81F8
:102C30004981CE010B96FC01E20FF31F40838D8981
:102C40009E89AF89B88D2AE030E040E050E0BC01B9
:102C5000CD010E948538DA01C9018D8B9E8BAF8B27
:102C6000B88F8D819E8101969E838D838F819885FB
:102C7000A985BA850196A11DB11D8F839887A98763
:102C8000BA878D899E89AF89B88D0097A105B10556
:102C900049F08D899E89AF89B88D0097A105B1054E
:102CA00009F0B2CF8F8198859E838D8313C08D816B
:102CB0009E819C0121503040CE010B96FC01E20F19
:102CC000F31F8081805D0E9426138D819E81019774
:102CD0009E838D838D819E81009749F768960FB6FC
:102CE000F894DEBF0FBECDBFCF91DF910895DF9383
:102CF000CF9300D000D00F92CDB7DEB79C838B83EB
:102D00006D838D81883018F58D81882F90E0880F34
:102D1000991F880F991F880F991F8A838A81806461
:102D20008A838A810E94301019820EC08981282FDF
:102D300030E08B819C81FC01E20FF31F80810E94B7
:102D4000261389818F5F89838981883078F382E0B7
:102D50000E9430100F900F900F900F900F90CF9116
:102D6000DF910895DF93CF9300D00F92CDB7DEB7F8
:102D700089836A834B838A816B810E94C71589810D
:102D80000E9426130F900F900F90CF91DF9108951E
:102D9000DF93CF93CDB7DEB7E8970FB6F894DEBFD9
:102DA0000FBECDBF80E090E0A8E4B2E48DAB9EAB57
:102DB000AFABB8AF6DA97EA98FA998AD20E030E088
:102DC0004AEF54E40E941F02DC01CB0189AB9AABAD
:102DD000ABABBCAB69A97AA98BA99CA920E030E078
:102DE00040E85FE30E94790388232CF481E090E0BF
:102DF00098AB8FA73FC069A97AA98BA99CA920E0AD
:102E00003FEF4FE757E40E94190318164CF56DA9E0
:102E10007EA98FA998AD20E030E040E251E40E9405
:102E20001F02DC01CB01BC01CD010E944900DC0185
:102E3000CB0198AB8FA70FC088EC90E09EA78DA721
:102E40008DA59EA50197F1F79EA78DA78FA598A99F
:102E5000019798AB8FA78FA598A9009769F714C021
:102E600069A97AA98BA99CA90E944900DC01CB0120
:102E700098AB8FA78FA598A99CA78BA78BA59CA57E
:102E80000197F1F79CA78BA783E06FEF0E9452098F
:102E900081E063E041E00E94D40981E064E041E028
:102EA0000E94D40981E065E041E00E94D40988E3F2
:102EB0000E94BF1880E090E0A0E8BFE38FA398A72E
:102EC000A9A7BAA76FA178A589A59AA520E030E0A7
:102ED0004AEF54E40E941F02DC01CB018BA39CA3A8
:102EE000ADA3BEA36BA17CA18DA19EA120E030E08B
:102EF00040E85FE30E94790388232CF481E090E0AE
:102F00009AA389A33FC06BA17CA18DA19EA120E0C3
:102F10003FEF4FE757E40E94190318164CF56FA1D5
:102F200078A589A59AA520E030E040E251E40E940E
:102F30001F02DC01CB01BC01CD010E944900DC0174
:102F4000CB019AA389A30FC088EC90E098A38F8F40
:102F50008F8D98A10197F1F798A38F8F89A19AA1DE
:102F600001979AA389A389A19AA1009769F714C030
:102F70006BA17CA18DA19EA10E944900DC01CB0127
:102F80009AA389A389A19AA19E8F8D8F8D8D9E8DE5
:102F90000197F1F79E8F8D8F8CE00E94BF1880E023
:102FA00090E0A0E8BFE3898F9A8FAB8FBC8F698DCB
:102FB0007A8D8B8D9C8D20E030E04AEF54E40E94A6
:102FC0001F02DC01CB018D8B9E8BAF8BB88F6D897F
:102FD0007E898F89988D20E030E040E85FE30E9491
:102FE000790388232CF481E090E09C8B8B8B3FC08D
:102FF0006D897E898F89988D20E03FEF4FE757E4F8
:103000000E94190318164CF5698D7A8D8B8D9C8D55
:1030100020E030E040E251E40E941F02DC01CB01DD
:10302000BC01CD010E944900DC01CB019C8B8B8B44
:103030000FC088EC90E09A8B898B89899A890197D7
:10304000F1F79A8B898B8B899C8901979C8B8B8B51
:103050008B899C89009769F714C06D897E898F8957
:10306000988D0E944900DC01CB019C8B8B8B8B8956
:103070009C89988B8F878F8598890197F1F7988B1A
:103080008F8781E00E94BF1880E090E0A0E0B0E46C
:103090008B879C87AD87BE876B857C858D859E855C
:1030A00020E030E04AEF54E40E941F02DC01CB0133
:1030B0008F839887A987BA876F81788589859A8554
:1030C00020E030E040E85FE30E94790388232CF49D
:1030D00081E090E09E838D833FC06F8178858985F4
:1030E0009A8520E03FEF4FE757E40E941903181636
:1030F0004CF56B857C858D859E8520E030E040E237
:1031000051E40E941F02DC01CB01BC01CD010E94F1
:103110004900DC01CB019E838D830FC088EC90E0D9
:103120009C838B838B819C810197F1F79C838B839C
:103130008D819E8101979E838D838D819E810097D5
:1031400069F714C06F81788589859A850E94490046
:10315000DC01CB019E838D838D819E819A8389833F
:1031600089819A810197F1F79A838983E8960FB64E
:10317000F894DEBF0FBECDBFCF91DF910895DF93EE
:10318000CF93CDB7DEB76D970FB6F894DEBF0FBE05
:10319000CDBF8D8F81E063E040E00E94DB0A81E0DB
:1031A00064E040E00E94DB0A83E06D8D0E94930999
:1031B00081E065E041E00E94DB0A80E090E0A0E869
:1031C000BFE3898F9A8FAB8FBC8F698D7A8D8B8D82
:1031D0009C8D20E030E04AEF54E40E941F02DC01A5
:1031E000CB018D8B9E8BAF8BB88F6D897E898F893C
:1031F000988D20E030E040E85FE30E947903882367
:103200002CF481E090E09C8B8B8B3FC06D897E8994
:103210008F89988D20E03FEF4FE757E40E94190314
:1032200018164CF5698D7A8D8B8D9C8D20E030E0E1
:1032300040E251E40E941F02DC01CB01BC01CD0140
:103240000E944900DC01CB019C8B8B8B0FC088EC6A
:1032500090E09A8B898B89899A890197F1F79A8BEB
:10326000898B8B899C8901979C8B8B8B8B899C8903
:10327000009769F714C06D897E898F89988D0E94A7
:103280004900DC01CB019C8B8B8B8B899C89988BB3
:103290008F878F8598890197F1F7988B8F8781E0C9
:1032A00065E040E00E94DB0A80E090E0A0E8BFE338
:1032B0008B879C87AD87BE876B857C858D859E853A
:1032C00020E030E04AEF54E40E941F02DC01CB0111
:1032D0008F839887A987BA876F81788589859A8532
:1032E00020E030E040E85FE30E94790388232CF47B
:1032F00081E090E09E838D833FC06F8178858985D2
:103300009A8520E03FEF4FE757E40E941903181613
:103310004CF56B857C858D859E8520E030E040E214
:1033200051E40E941F02DC01CB01BC01CD010E94CF
:103330004900DC01CB019E838D830FC088EC90E0B7
:103340009C838B838B819C810197F1F79C838B837A
:103350008D819E8101979E838D838D819E810097B3
:1033600069F714C06F81788589859A850E94490024
:10337000DC01CB019E838D838D819E819A8389831D
:1033800089819A810197F1F79A8389836D960FB6A7
:10339000F894DEBF0FBECDBFCF91DF910895DF93CC
:1033A000CF93CDB7DEB76D970FB6F894DEBF0FBEE3
:1033B000CDBF8D8F81E063E041E00E94DB0A81E0B8
:1033C00064E040E00E94DB0A83E06D8D0E94930977
:1033D00081E065E041E00E94DB0A80E090E0A0E847
:1033E000BFE3898F9A8FAB8FBC8F698D7A8D8B8D60
:1033F0009C8D20E030E04AEF54E40E941F02DC0183
:10340000CB018D8B9E8BAF8BB88F6D897E898F8919
:10341000988D20E030E040E85FE30E947903882344
:103420002CF481E090E09C8B8B8B3FC06D897E8972
:103430008F89988D20E03FEF4FE757E40E941903F2
:1034400018164CF5698D7A8D8B8D9C8D20E030E0BF
:1034500040E251E40E941F02DC01CB01BC01CD011E
:103460000E944900DC01CB019C8B8B8B0FC088EC48
:1034700090E09A8B898B89899A890197F1F79A8BC9
:10348000898B8B899C8901979C8B8B8B8B899C89E1
:10349000009769F714C06D897E898F89988D0E9485
:1034A0004900DC01CB019C8B8B8B8B899C89988B91
:1034B0008F878F8598890197F1F7988B8F8781E0A7
:1034C00065E040E00E94DB0A80E090E0A0E8BFE316
:1034D0008B879C87AD87BE876B857C858D859E8518
:1034E00020E030E04AEF54E40E941F02DC01CB01EF
:1034F0008F839887A987BA876F81788589859A8510
:1035000020E030E040E85FE30E94790388232CF458
:1035100081E090E09E838D833FC06F8178858985AF
:103520009A8520E03FEF4FE757E40E9419031816F1
:103530004CF56B857C858D859E8520E030E040E2F2
:1035400051E40E941F02DC01CB01BC01CD010E94AD
:103550004900DC01CB019E838D830FC088EC90E095
:103560009C838B838B819C810197F1F79C838B8358
:103570008D819E8101979E838D838D819E81009791
:1035800069F714C06F81788589859A850E94490002
:10359000DC01CB019E838D838D819E819A838983FB
:1035A00089819A810197F1F79A8389836D960FB685
:1035B000F894DEBF0FBECDBFCF91DF910895DF93AA
:1035C000CF93CDB7DEB761970FB6F894DEBF0FBECD
:1035D000CDBF998B888B1F8680C08F85282F30E0C8
:1035E00088899989FC01E20FF31F80810E94CF191D
:1035F00080E090E0A0E0B0E48B879C87AD87BE8739
:103600006B857C858D859E8520E030E04AEF54E413
:103610000E941F02DC01CB018F839887A987BA879C
:103620006F81788589859A8520E030E040E85FE306
:103630000E94790388232CF481E090E09E838D839F
:103640003FC06F81788589859A8520E03FEF4FE7FD
:1036500057E40E94190318164CF56B857C858D85FF
:103660009E8520E030E040E251E40E941F02DC0130
:10367000CB01BC01CD010E944900DC01CB019E833E
:103680008D830FC088EC90E09C838B838B819C8121
:103690000197F1F79C838B838D819E8101979E8397
:1036A0008D838D819E81009769F714C06F81788525
:1036B00089859A850E944900DC01CB019E838D8318
:1036C0008D819E819A83898389819A810197F1F7FF
:1036D0009A8389838F858F5F8F878F85282F30E02E
:1036E00088899989FC01E20FF31F8081882309F002
:1036F00074CF61960FB6F894DEBF0FBECDBFCF91E9
:10370000DF910895DF93CF93CDB7DEB768970FB6FB
:10371000F894DEBF0FBECDBF6D8B7E8B8F8B988FE5
:103720001F82188619861A861E821D8219821A82A5
:103730001B821C8245C08D899E89AF89B88D2AE085
:1037400030E040E050E0BC01CD010E948538DC0152
:10375000CB0189839A83AB83BC832D813E814981D0
:10376000CE010B96FC01E20FF31F40838D899E89E9
:10377000AF89B88D2AE030E040E050E0BC01CD01D7
:103780000E948538DA01C9018D8B9E8BAF8BB88F73
:103790008D819E8101969E838D838F819885A985D9
:1037A000BA850196A11DB11D8F839887A987BA8715
:1037B0008D899E89AF89B88D0097A105B10549F023
:1037C0008D899E89AF89B88D0097A105B10509F053
:1037D000B2CF8F8198859E838D8313C08D819E810A
:1037E0009C0121503040CE010B96FC01E20FF31FEB
:1037F0008081805D0E94CF198D819E8101979E837B
:103800008D838D819E81009749F768960FB6F89455
:10381000DEBF0FBECDBFCF91DF910895DF93CF9371
:10382000CDB7DEB76E970FB6F894DEBF0FBECDBF33
:103830008D8F6E8F8D8D882309F077C08E8D805887
:103840000E94BF1880E090E0A0E8BFE3898F9A8FC4
:10385000AB8FBC8F698D7A8D8B8D9C8D20E030E095
:103860004AEF54E40E941F02DC01CB018D8B9E8B3A
:10387000AF8BB88F6D897E898F89988D20E030E07D
:1038800040E85FE30E94790388232CF481E090E014
:103890009C8B8B8B3FC06D897E898F89988D20E0B2
:1038A0003FEF4FE757E40E94190318164CF5698D56
:1038B0007A8D8B8D9C8D20E030E040E251E40E94B7
:1038C0001F02DC01CB01BC01CD010E944900DC01DB
:1038D000CB019C8B8B8B0FC088EC90E09A8B898BF3
:1038E00089899A890197F1F79A8B898B8B899C89B1
:1038F00001979C8B8B8B8B899C89009769F78FC074
:103900006D897E898F89988D0E944900DC01CB01E9
:103910009C8B8B8B8B899C89988B8F878F859889C3
:103920000197F1F7988B8F877AC08D8D813009F0E0
:1039300076C08E8D80540E94BF1880E090E0A0E891
:10394000BFE38B879C87AD87BE876B857C858D8524
:103950009E8520E030E04AEF54E40E941F02DC0123
:10396000CB018F839887A987BA876F8178858985EE
:103970009A8520E030E040E85FE30E9479038823E5
:103980002CF481E090E09E838D833FC06F81788529
:1039900089859A8520E03FEF4FE757E40E9419039D
:1039A00018164CF56B857C858D859E8520E030E072
:1039B00040E251E40E941F02DC01CB01BC01CD01B9
:1039C0000E944900DC01CB019E838D830FC088ECEF
:1039D00090E09C838B838B819C810197F1F79C8382
:1039E0008B838D819E8101979E838D838D819E81A6
:1039F000009769F714C06F81788589859A850E9440
:103A00004900DC01CB019E838D838D819E819A8349
:103A1000898389819A810197F1F79A8389836E96C8
:103A20000FB6F894DEBF0FBECDBFCF91DF910895E2
:103A3000DF93CF93CDB7DEB780E40E94BF18CF915C
:103A4000DF910895DF93CF93CDB7DEB70E94181DA5
:103A500080E00E94CF1980E00E94CF1984E00E948C
:103A6000CF198AE00E94CF198AE10E94CF198AE01B
:103A70000E94CF1984E00E94CF1980E00E94CF19E4
:103A800080E00E94CF1980E00E94CF198CE00E9454
:103A9000CF1982E00E94CF198FE10E94CF1980E0F8
:103AA0000E94CF1980E00E94CF1980E00E94CF19B8
:103AB00080E00E94CF1980E00E94CF1984E00E942C
:103AC000CF198AE00E94CF198BE10E94CF198AE0BA
:103AD0000E94CF1984E00E94CF1980E00E94CF1984
:103AE00080E00E94CF1980E00E94CF1984E00E94FC
:103AF000CF1984E00E94CF198FE10E94CF1980E096
:103B00000E94CF1980E00E94CF1980E00E94CF1957
:103B1000CF91DF910895DF93CF93CDB7DEB780E0EB
:103B20006FE00E94520980E06FEF0E949309CF91ED
:103B3000DF910895DF93CF93CDB7DEB7E6970FB649
:103B4000F894DEBF0FBECDBF1F86CE0142969BAB61
:103B50008AABE3EBF0E0FDABECABF0E2FEABECA943
:103B6000FDA900808CA99DA901969DAB8CABEAA90B
:103B7000FBA900828AA99BA901969BAB8AAB9EA94F
:103B800091509EABEEA9EE2351F7198AB2C080E0A6
:103B9000698940E00E94DB0A84E0888B9EC080E057
:103BA00068890E94E20B882309F094C08889882FD5
:103BB00090E0AC01445050408989282F30E0CA0180
:103BC000880F991F880F991F820F931F9C01220F46
:103BD000331FCE010196820F931FFC0171968081E5
:103BE00091818F8780E068890E94E20B8823D1F35E
:103BF00080E090E0A8E4B2E48B879C87AD87BE8725
:103C00006B857C858D859E8520E030E04AEF54E40D
:103C10000E941F02DC01CB018F839887A987BA8796
:103C20006F81788589859A8520E030E040E85FE300
:103C30000E94790388232CF481E090E09E838D8399
:103C40003FC06F81788589859A8520E03FEF4FE7F7
:103C500057E40E94190318164CF56B857C858D85F9
:103C60009E8520E030E040E251E40E941F02DC012A
:103C7000CB01BC01CD010E944900DC01CB019E8338
:103C80008D830FC088EC90E09C838B838B819C811B
:103C90000197F1F79C838B838D819E8101979E8391
:103CA0008D838D819E81009769F714C06F8178851F
:103CB00089859A850E944900DC01CB019E838D8312
:103CC0008D819E819A83898389819A810197F1F7F9
:103CD0009A83898388898F5F888B8889883008F4E4
:103CE0005ECF80E0698941E00E94DB0A89898F5FAD
:103CF000898B8989843008F44ACF8F85E6960FB680
:103D0000F894DEBF0FBECDBFCF91DF910895DF9352
:103D1000CF93CDB7DEB7E6970FB6F894DEBF0FBEF0
:103D2000CDBF1F86CE0142969BAB8AABE3EDF0E0A0
:103D3000FDABECABF0E2FEABECA9FDA900808CA9D9
:103D40009DA901969DAB8CABEAA9FBA900828AA92B
:103D50009BA901969BAB8AAB9EA991509EABEEA905
:103D6000EE2351F7198AB2C080E0698940E00E94D1
:103D7000DB0A84E0888B9EC080E068890E94E20BA9
:103D8000882309F094C08889882F90E0AC014450C2
:103D900050408989282F30E0CA01880F991F880F69
:103DA000991F820F931F9C01220F331FCE01019692
:103DB000820F931FFC017196808191818F8780E033
:103DC00068890E94E20B8823D1F380E090E0A0E2B2
:103DD000B2E48B879C87AD87BE876B857C858D859C
:103DE0009E8520E030E04AEF54E40E941F02DC018F
:103DF000CB018F839887A987BA876F81788589855A
:103E00009A8520E030E040E85FE30E947903882350
:103E10002CF481E090E09E838D833FC06F81788594
:103E200089859A8520E03FEF4FE757E40E94190308
:103E300018164CF56B857C858D859E8520E030E0DD
:103E400040E251E40E941F02DC01CB01BC01CD0124
:103E50000E944900DC01CB019E838D830FC088EC5A
:103E600090E09C838B838B819C810197F1F79C83ED
:103E70008B838D819E8101979E838D838D819E8111
:103E8000009769F714C06F81788589859A850E94AB
:103E90004900DC01CB019E838D838D819E819A83B5
:103EA000898389819A810197F1F79A838983888927
:103EB0008F5F888B8889883008F45ECF80E06989BD
:103EC00041E00E94DB0A89898F5F898B8989843070
:103ED00008F44ACF8F85E6960FB6F894DEBF0FBE82
:103EE000CDBFCF91DF910895DF93CF930F92CDB7E0
:103EF000DEB70E948B1D0E94C8160E94871E898310
:103F000089818B3221F48BE20E94CF19F6CF89810F
:103F10008D3321F48DE30E94CF19EFCF89818A324E
:103F200021F48AE20E94CF19E8CF89818D3221F4F1
:103F30008DE20E94CF19E1CF89818E3221F48EE289
:103F40000E94CF19DACF89818C3621F480E30E9458
:103F5000CF19D3CF8981833619F40E94C816CDCFEB
:103F60008981882F90E0A0E0B0E0BC01CD010E94E3
:103F7000821BC3CFDF93CF9300D000D0CDB7DEB785
:103F80001C821B821A8219820E942A0E80E690E00F
:103F900060E040E00E94FF140E94630C81E060E05A
:103FA00041E00E94D40981E061E041E00E94D4092F
:103FB00081E067E041E00E94D40980E00E94B70CF4
:103FC0009C838B838B819C81CC01A0E0B0E028E8AE
:103FD00033E140E050E0BC01CD010E946638DC01D5
:103FE000CB01072E7AE0B695A795979587957A9598
:103FF000D1F7702D9A83898381E060E00E94C71514
:1040000089819A81CC01A0E0B0E0BC01CD010E9481
:10401000EB1589819A8121E08139920780F481E052
:1040200067E040E00E94DB0A81E061E040E00E943E
:10403000DB0A81E060E040E00E94DB0ABECF8981BC
:104040009A8121E081399207B0F089819A8124E038
:10405000813B920780F481E067E040E00E94DB0A48
:1040600081E061E040E00E94DB0A81E060E041E045
:104070000E94DB0AA2CF89819A8124E0813B9207CA
:10408000B0F089819A8129E0853C920780F481E033
:1040900067E040E00E94DB0A81E060E040E00E94CF
:1040A000DB0A81E061E041E00E94DB0A86CF898182
:1040B0009A8129E0853C920708F47FCF89819A8113
:1040C00023E18838920708F078CF81E067E041E08B
:1040D0000E94DB0A81E060E040E00E94DB0A81E0B0
:1040E00061E040E00E94DB0A68CFDF93CF93CDB759
:1040F000DEB70E942A0E8FE690E060E040E00E946A
:10410000FF140E94A3050E94630C81E060E041E07F
:104110000E94D40981E061E041E00E94D40981E07D
:1041200067E041E00E94D4090E940D0D80E00E94EA
:10413000ED0CFFCFDF93CF93CDB7DEB72F970FB640
:10414000F894DEBF0FBECDBF81E08F870E942A0E9C
:104150008EE790E060E040E00E94FF1480E060E0C5
:104160000E942D0680E00E94BF0581E060E00E9471
:104170002D0681E00E94BF0582E060E00E942D06CE
:1041800082E00E94BF050E94A30581E060E041E05B
:104190000E94D40981E061E041E00E94D40981E0FD
:1041A00067E041E00E94D40981E060E00E94C71509
:1041B0008F85882F90E0A0E0B0E0BC01CD010E9487
:1041C000EB158F858F5F8F8780E090E0AAE7B4E4DE
:1041D0008B879C87AD87BE876B857C858D859E850B
:1041E00020E030E04AEF54E40E941F02DC01CB01E2
:1041F0008F839887A987BA876F81788589859A8503
:1042000020E030E040E85FE30E94790388232CF44B
:1042100081E090E09E838D833FC06F8178858985A2
:104220009A8520E03FEF4FE757E40E9419031816E4
:104230004CF56B857C858D859E8520E030E040E2E5
:1042400051E40E941F02DC01CB01BC01CD010E94A0
:104250004900DC01CB019E838D830FC088EC90E088
:104260009C838B838B819C810197F1F79C838B834B
:104270008D819E8101979E838D838D819E81009784
:1042800069F714C06F81788589859A850E944900F5
:10429000DC01CB019E838D838D819E819A838983EE
:1042A00089819A810197F1F79A8389838F858A3072
:1042B00009F07ACF81E08F8777CFDF93CF93CDB7A7
:1042C000DEB7AC970FB6F894DEBF0FBECDBF0E942D
:1042D000C81681E40E94CF190E94221D8FE08CA78E
:1042E0001BA60DC080E06CA50E940E1C8BA50E9431
:1042F000CF198CA581508CA78BA58F5F8BA78CA520
:104300008C3080F780E090E0AAE7B4E48FA398A710
:10431000A9A7BAA76FA178A589A59AA520E030E042
:104320004AEF54E40E941F02DC01CB018BA39CA343
:10433000ADA3BEA36BA17CA18DA19EA120E030E026
:1043400040E85FE30E94790388232CF481E090E049
:104350009AA389A33FC06BA17CA18DA19EA120E05F
:104360003FEF4FE757E40E94190318164CF56FA171
:1043700078A589A59AA520E030E040E251E40E94AA
:104380001F02DC01CB01BC01CD010E944900DC0110
:10439000CB019AA389A30FC088EC90E098A38F8FDC
:1043A0008F8D98A10197F1F798A38F8F89A19AA17A
:1043B00001979AA389A389A19AA1009769F714C0CC
:1043C0006BA17CA18DA19EA10E944900DC01CB01C3
:1043D0009AA389A389A19AA19E8F8D8F8D8D9E8D81
:1043E0000197F1F79E8F8D8F81E00E94BF180E9488
:1043F000221D81E069E00E940E1C80E00E94CF191E
:1044000081E068E00E940E1C81E00E94CF1981E0EB
:1044100067E00E940E1C82E00E94CF1981E066E0F6
:104420000E940E1C83E00E94CF1980E090E0AAE772
:10443000B4E4898F9A8FAB8FBC8F698D7A8D8B8D09
:104440009C8D20E030E04AEF54E40E941F02DC0122
:10445000CB018D8B9E8BAF8BB88F6D897E898F89B9
:10446000988D20E030E040E85FE30E9479038823E4
:104470002CF481E090E09C8B8B8B3FC06D897E8912
:104480008F89988D20E03FEF4FE757E40E94190392
:1044900018164CF5698D7A8D8B8D9C8D20E030E05F
:1044A00040E251E40E941F02DC01CB01BC01CD01BE
:1044B0000E944900DC01CB019C8B8B8B0FC088ECE8
:1044C00090E09A8B898B89899A890197F1F79A8B69
:1044D000898B8B899C8901979C8B8B8B8B899C8981
:1044E000009769F714C06D897E898F89988D0E9425
:1044F0004900DC01CB019C8B8B8B8B899C89988B31
:104500008F878F8598890197F1F7988B8F8781E046
:104510000E94BF180E94221D80E063E00E940E1CD2
:1045200080E00E94CF1980E062E00E940E1C81E0D2
:104530000E94CF1980E061E00E940E1C82E00E9480
:10454000CF1980E060E00E940E1C83E00E94CF192A
:1045500080E090E0AAE7B4E48B879C87AD87BE87B4
:104560006B857C858D859E8520E030E04AEF54E4A4
:104570000E941F02DC01CB018F839887A987BA872D
:104580006F81788589859A8520E030E040E85FE397
:104590000E94790388232CF481E090E09E838D8330
:1045A0003FC06F81788589859A8520E03FEF4FE78E
:1045B00057E40E94190318164CF56B857C858D8590
:1045C0009E8520E030E040E251E40E941F02DC01C1
:1045D000CB01BC01CD010E944900DC01CB019E83CF
:1045E0008D830FC088EC90E09C838B838B819C81B2
:1045F0000197F1F79C838B838D819E8101979E8328
:104600008D838D819E81009769F714C06F817885B5
:1046100089859A850E944900DC01CB019E838D83A8
:104620008D819E819A83898389819A810197F1F78F
:104630009A83898381E00E94BF184ECEDF93CF9387
:10464000CDB7DEB7E4970FB6F894DEBF0FBECDBF8F
:10465000CE0101969AA389A3EBE0F1E0FCA3EBA3C2
:10466000F8E0FDA3EBA1FCA100808BA19CA1019629
:104670009CA38BA3E9A1FAA1008289A19AA101962A
:104680009AA389A39DA191509DA3EDA1EE2351F77B
:10469000CE0109969FA38EA3E3E0F1E0F9A7E8A776
:1046A000F8E0FAA7E8A5F9A5008088A599A50196E4
:1046B00099A788A7EEA1FFA100828EA19FA10196D4
:1046C0009FA38EA39AA591509AA7EAA5EE2351F72E
:1046D000CE0141969CA78BA7EBEFF0E0FEA7EDA7DC
:1046E000F8E0FFA7EDA5FEA500808DA59EA501968B
:1046F0009EA78DA7EBA5FCA500828BA59CA5019686
:104700009CA78BA79FA591509FA7EFA5EE2351F7DC
:10471000CE01499699AB88ABE3EFF0E0FBABEAAB97
:10472000F8E0FCABEAA9FBA900808AA99BA9019645
:104730009BAB8AABE8A9F9A9008288A999A901963F
:1047400099AB88AB9CA991509CABECA9EE2351F797
:104750000E942A0E84E890E060E045E00E94FF1489
:10476000CE01019660E00E947716CE01099661E0C5
:104770000E947716CE01419662E00E947716CE0124
:10478000499663E00E947716FFCFDF93CF93CDB7B2
:10479000DEB76C970FB6F894DEBF0FBECDBF80E0DA
:1047A00064E041E00E94D40982E060E041E00E94C0
:1047B000DB0A80E090E0AAEFB4E4898F9A8FAB8F98
:1047C000BC8F698D7A8D8B8D9C8D20E030E04AEF17
:1047D00054E40E941F02DC01CB018D8B9E8BAF8BBA
:1047E000B88F6D897E898F89988D20E030E040E810
:1047F0005FE30E94790388232CF481E090E09C8B96
:104800008B8B3FC06D897E898F89988D20E03FEF2B
:104810004FE757E40E94190318164CF5698D7A8DFD
:104820008B8D9C8D20E030E040E251E40E941F021D
:10483000DC01CB01BC01CD010E944900DC01CB01B0
:104840009C8B8B8B0FC088EC90E09A8B898B89892D
:104850009A890197F1F79A8B898B8B899C890197AB
:104860009C8B8B8B8B899C89009769F714C06D8911
:104870007E898F89988D0E944900DC01CB019C8B39
:104880008B8B8B899C89988B8F878F8598890197D3
:10489000F1F7988B8F8782E060E040E00E94DB0AAE
:1048A00080E090E0AAE7B4E48B879C87AD87BE8761
:1048B0006B857C858D859E8520E030E04AEF54E451
:1048C0000E941F02DC01CB018F839887A987BA87DA
:1048D0006F81788589859A8520E030E040E85FE344
:1048E0000E94790388232CF481E090E09E838D83DD
:1048F0003FC06F81788589859A8520E03FEF4FE73B
:1049000057E40E94190318164CF56B857C858D853C
:104910009E8520E030E040E251E40E941F02DC016D
:10492000CB01BC01CD010E944900DC01CB019E837B
:104930008D830FC088EC90E09C838B838B819C815E
:104940000197F1F79C838B838D819E8101979E83D4
:104950008D838D819E81009769F726CF6F81788541
:1049600089859A850E944900DC01CB019E838D8355
:104970008D819E819A83898389819A810197F1F73C
:104980009A83898311CFDF93CF93CDB7DEB7E997B1
:104990000FB6F894DEBF0FBECDBF0E94DA0D82E0E5
:1049A00060E041E00E94D40982E061E041E00E94C1
:1049B000D40982E062E041E00E94D40982E067E02D
:1049C00040E00E94D40982E066E040E00E94D40901
:1049D00082E067E041E00E94DB0A82E066E041E0BD
:1049E0000E94DB0A82E067E00E94E20B882309F064
:1049F0007CC10E941F0E82E060E041E00E94DB0A61
:104A000082E061E040E00E94DB0A80E090E0AAE7FB
:104A1000B4E48DAB9EABAFABB8AF6DA97EA98FA947
:104A200098AD20E030E04AEF54E40E941F02DC0120
:104A3000CB0189AB9AABABABBCAB69A97AA98BA90B
:104A40009CA920E030E040E85FE30E9479038823DE
:104A50002CF481E090E098AB8FA73FC069A97AA9B8
:104A60008BA99CA920E03FEF4FE757E40E94190370
:104A700018164CF56DA97EA98FA998AD20E030E0FD
:104A800040E251E40E941F02DC01CB01BC01CD01D8
:104A90000E944900DC01CB0198AB8FA70FC088ECC6
:104AA00090E09EA78DA78DA59EA50197F1F79EA7E3
:104AB0008DA78FA598A9019798AB8FA78FA598A9C7
:104AC000009769F714C069A97AA98BA99CA90E94CB
:104AD0004900DC01CB0198AB8FA78FA598A99CA7B3
:104AE0008BA78BA59CA50197F1F79CA78BA782E0CC
:104AF00060E040E00E94DB0A82E061E041E00E9469
:104B0000DB0A80E090E0AAE7B4E48FA398A7A9A706
:104B1000BAA76FA178A589A59AA520E030E04AEF51
:104B200054E40E941F02DC01CB018BA39CA3ADA324
:104B3000BEA36BA17CA18DA19EA120E030E040E846
:104B40005FE30E94790388232CF481E090E09AA32C
:104B500089A33FC06BA17CA18DA19EA120E03FEF66
:104B60004FE757E40E94190318164CF56FA178A57A
:104B700089A59AA520E030E040E251E40E941F029E
:104B8000DC01CB01BC01CD010E944900DC01CB015D
:104B90009AA389A30FC088EC90E098A38F8F8F8D84
:104BA00098A10197F1F798A38F8F89A19AA10197F6
:104BB0009AA389A389A19AA1009769F714C06BA150
:104BC0007CA18DA19EA10E944900DC01CB019AA38A
:104BD00089A389A19AA19E8F8D8F8D8D9E8D01971E
:104BE000F1F79E8F8D8F82E060E040E00E94DB0A4B
:104BF00082E061E040E00E94DB0A82E062E041E0A6
:104C00000E94DB0A80E090E0AAE7B4E4898F9A8FE3
:104C1000AB8FBC8F698D7A8D8B8D9C8D20E030E0C1
:104C20004AEF54E40E941F02DC01CB018D8B9E8B66
:104C3000AF8BB88F6D897E898F89988D20E030E0A9
:104C400040E85FE30E94790388232CF481E090E040
:104C50009C8B8B8B3FC06D897E898F89988D20E0DE
:104C60003FEF4FE757E40E94190318164CF5698D82
:104C70007A8D8B8D9C8D20E030E040E251E40E94E3
:104C80001F02DC01CB01BC01CD010E944900DC0107
:104C9000CB019C8B8B8B0FC088EC90E09A8B898B1F
:104CA00089899A890197F1F79A8B898B8B899C89DD
:104CB00001979C8B8B8B8B899C89009769F792CE8F
:104CC0006D897E898F89988D0E944900DC01CB0116
:104CD0009C8B8B8B8B899C89988B8F878F859889F0
:104CE0000197F1F7988B8F877DCE82E067E00E9475
:104CF000E20B813009F076CE82E060E040E00E9475
:104D0000DB0A82E061E040E00E94DB0A82E062E0D0
:104D100040E00E94DB0A19AE7DC089AD60E00E94D0
:104D2000F10D80E090E0AAE7B4E48B879C87AD8723
:104D3000BE876B857C858D859E8520E030E04AEFBF
:104D400054E40E941F02DC01CB018F839887A9875E
:104D5000BA876F81788589859A8520E030E040E8C0
:104D60005FE30E94790388232CF481E090E09E8326
:104D70008D833FC06F81788589859A8520E03FEFDC
:104D80004FE757E40E94190318164CF56B857C8594
:104D90008D859E8520E030E040E251E40E941F02B4
:104DA000DC01CB01BC01CD010E944900DC01CB013B
:104DB0009E838D830FC088EC90E09C838B838B81D6
:104DC0009C810197F1F79C838B838D819E81019754
:104DD0009E838D838D819E81009769F714C06F81BA
:104DE000788589859A850E944900DC01CB019E83E4
:104DF0008D838D819E819A83898389819A81019790
:104E0000F1F79A83898389AD893009F4EBCD89ADB7
:104E10008F5F89AF89AD8A3008F47FCFE3CDDF9310
:104E2000CF93CDB7DEB7E8970FB6F894DEBF0FBECD
:104E3000CDBF81E060E041E00E94D40981E061E003
:104E400041E00E94D40981E060E041E00E94DB0A79
:104E500081E061E040E00E94DB0A80E090E0AAEFA0
:104E6000B4E48DAB9EABAFABB8AF6DA97EA98FA9F3
:104E700098AD20E030E04AEF54E40E941F02DC01CC
:104E8000CB0189AB9AABABABBCAB69A97AA98BA9B7
:104E90009CA920E030E040E85FE30E94790388238A
:104EA0002CF481E090E098AB8FA73FC069A97AA964
:104EB0008BA99CA920E03FEF4FE757E40E9419031C
:104EC00018164CF56DA97EA98FA998AD20E030E0A9
:104ED00040E251E40E941F02DC01CB01BC01CD0184
:104EE0000E944900DC01CB0198AB8FA70FC088EC72
:104EF00090E09EA78DA78DA59EA50197F1F79EA78F
:104F00008DA78FA598A9019798AB8FA78FA598A972
:104F1000009769F714C069A97AA98BA99CA90E9476
:104F20004900DC01CB0198AB8FA78FA598A99CA75E
:104F30008BA78BA59CA50197F1F79CA78BA781E078
:104F400060E040E00E94DB0A81E061E040E00E9416
:104F5000DB0A80E090E4ACE9B5E48FA398A7A9A7A9
:104F6000BAA76FA178A589A59AA520E030E04AEFFD
:104F700054E40E941F02DC01CB018BA39CA3ADA3D0
:104F8000BEA36BA17CA18DA19EA120E030E040E8F2
:104F90005FE30E94790388232CF481E090E09AA3D8
:104FA00089A33FC06BA17CA18DA19EA120E03FEF12
:104FB0004FE757E40E94190318164CF56FA178A526
:104FC00089A59AA520E030E040E251E40E941F024A
:104FD000DC01CB01BC01CD010E944900DC01CB0109
:104FE0009AA389A30FC088EC90E098A38F8F8F8D30
:104FF00098A10197F1F798A38F8F89A19AA10197A2
:105000009AA389A389A19AA1009769F714C06BA1FB
:105010007CA18DA19EA10E944900DC01CB019AA335
:1050200089A389A19AA19E8F8D8F8D8D9E8D0197C9
:10503000F1F79E8F8D8F81E060E040E00E94DB0AF7
:1050400081E061E041E00E94DB0A80E090E0AAEFAD
:10505000B4E4898F9A8FAB8FBC8F698D7A8D8B8DDD
:105060009C8D20E030E04AEF54E40E941F02DC01F6
:10507000CB018D8B9E8BAF8BB88F6D897E898F898D
:10508000988D20E030E040E85FE30E9479038823B8
:105090002CF481E090E09C8B8B8B3FC06D897E89E6
:1050A0008F89988D20E03FEF4FE757E40E94190366
:1050B00018164CF5698D7A8D8B8D9C8D20E030E033
:1050C00040E251E40E941F02DC01CB01BC01CD0192
:1050D0000E944900DC01CB019C8B8B8B0FC088ECBC
:1050E00090E09A8B898B89899A890197F1F79A8B3D
:1050F000898B8B899C8901979C8B8B8B8B899C8955
:10510000009769F714C06D897E898F89988D0E94F8
:105110004900DC01CB019C8B8B8B8B899C89988B04
:105120008F878F8598890197F1F7988B8F8781E01A
:1051300060E040E00E94DB0A81E061E040E00E9424
:10514000DB0A80E090E4ACE9B5E48B879C87AD870F
:10515000BE876B857C858D859E8520E030E04AEF9B
:1051600054E40E941F02DC01CB018F839887A9873A
:10517000BA876F81788589859A8520E030E040E89C
:105180005FE30E94790388232CF481E090E09E8302
:105190008D833FC06F81788589859A8520E03FEFB8
:1051A0004FE757E40E94190318164CF56B857C8570
:1051B0008D859E8520E030E040E251E40E941F0290
:1051C000DC01CB01BC01CD010E944900DC01CB0117
:1051D0009E838D830FC088EC90E09C838B838B81B2
:1051E0009C810197F1F79C838B838D819E81019730
:1051F0009E838D838D819E81009769F724CE6F8178
:10520000788589859A850E944900DC01CB019E83BF
:105210008D838D819E819A83898389819A8101976B
:10522000F1F79A8389830FCE0F931F93DF93CF9368
:10523000CDB7DEB7C051D1400FB6F894DEBF0FBE78
:10524000CDBFCE018E519F4FCE5FDE4F99838883B5
:10525000C250D14083E291E0CC5FDE4F99838883D6
:10526000C450D14098E0CA5FDE4F9883C650D14009
:10527000CC5FDE4FA881B981C450D1400C90CC5F87
:10528000DE4FE881F981C450D1403196CC5FDE4FCA
:10529000F983E883C450D140CE5FDE4FA881B98145
:1052A000C250D1400C92CE5FDE4FE881F981C250EE
:1052B000D1403196CE5FDE4FF983E883C250D140B2
:1052C000CA5FDE4FF881C650D140F150CA5FDE4F51
:1052D000F883C650D140CA5FDE4F8881C650D140A6
:1052E000882331F6CE0186519F4FC95FDE4F9983E7
:1052F0008883C750D140ABE1B1E0C75FDE4FB983CF
:10530000A883C950D140B8E0C55FDE4FB883CB5009
:10531000D140C75FDE4FE881F981C950D14000809C
:10532000C75FDE4F88819981C950D1400196C75F20
:10533000DE4F99838883C950D140C95FDE4FA88171
:10534000B981C750D1400C92C95FDE4FE881F98125
:10535000C750D1403196C95FDE4FF983E883C7500B
:10536000D140C55FDE4FF881CB50D140F150C55FD1
:10537000DE4FF883CB50D140C55FDE4F8881CB50E4
:10538000D140882331F6CE018E509F4FC45FDE4F4F
:1053900099838883CC50D140A3E1B1E0C25FDE4F56
:1053A000B983A883CE50D140B8E0C05FDE4FB88348
:1053B000C051D140C25FDE4FE881F981CE50D1406B
:1053C0000080C25FDE4F88819981CE50D140019626
:1053D000C25FDE4F99838883CE50D140C45FDE4FD9
:1053E000A881B981CC50D1400C92C45FDE4FE881D6
:1053F000F981CC50D1403196C45FDE4FF983E88308
:10540000CC50D140C05FDE4FF881C051D140F15047
:10541000C05FDE4FF883C051D140C05FDE4F88814E
:10542000C051D140882331F6CE0186509F4F28E0ED
:10543000FC01DF01822F1D928A95E9F70E948B1DE6
:105440000E942A0ECE018E519F4F60E00E94771677
:10545000CE0186519F4F61E00E947716CE018E509B
:105460009F4F62E00E947716CE0186509F4F63E007
:105470000E9477168AE890E060E043E00E94FF1403
:105480000E949A1DFE01EF51FF4F8083FE01EF51F4
:10549000FF4F8081813009F0D6C081E00E9430103A
:1054A00080E060E040E00E94B21681E060E043E00E
:1054B0000E94B21682E060E04FE00E94B21680E0E7
:1054C00061E040E00E94B21681E061E043E00E94AA
:1054D000B21682E061E04FE00E94B216FE01E35294
:1054E000FF4F80E090E0AAE7B4E480839183A28339
:1054F000B3838E0107521F4FFE01E352FF4F6081BD
:1055000071818281938120E030E04AEF54E40E946F
:105510001F02DC01CB01F80180839183A283B38356
:10552000FE01E752FF4F608171818281938120E00B
:1055300030E040E85FE30E947903882344F4FE01F1
:10554000E952FF4F81E090E09183808364C0FE01C7
:10555000E752FF4F608171818281938120E03FEFAC
:105560004FE757E40E94190318160CF043C0FE01E0
:10557000E352FF4F608171818281938120E030E0AE
:1055800040E251E40E941F02DC01CB018E0109526E
:105590001F4FBC01CD010E944900DC01CB01F80185
:1055A000918380831FC0FE01EB52FF4F88EC90E097
:1055B00091838083FE01EB52FF4F8081918101979F
:1055C000F1F7FE01EB52FF4F91838083DE01A95278
:1055D000BF4FFE01E952FF4F8081918101971196E3
:1055E0009C938E93FE01E952FF4F80819181009739
:1055F000D1F646CF8E0109521F4FFE01E752FF4FF1
:1056000060817181828193810E944900DC01CB011C
:10561000F80191838083DE01AD52BF4FFE01E95254
:10562000FF4F8081918111969C938E93FE01ED52E4
:10563000FF4F808191810197F1F7FE01ED52FF4FFD
:10564000918380831DCFFE01EF51FF4F8081823017
:1056500009F016CF81E00E94301080E060E040E069
:105660000E94B21681E060E043E00E94B21682E040
:1056700060E04FE00E94B21680E061E040E00E94EE
:10568000B21681E061E043E00E94B21682E061E080
:105690004FE00E94B216FE01E153FF4F80E090E020
:1056A000AAEFB3E480839183A283B3838E01055371
:1056B0001F4FFE01E153FF4F608171818281938111
:1056C00020E030E04AEF54E40E941F02DC01CB01ED
:1056D000F80180839183A283B383FE01E553FF4FDA
:1056E000608171818281938120E030E040E85FE356
:1056F0000E947903882344F4FE01E753FF4F81E0C1
:1057000090E09183808364C0FE01E553FF4F608188
:1057100071818281938120E03FEF4FE757E40E943F
:10572000190318160CF043C0FE01E153FF4F6081CE
:1057300071818281938120E030E040E251E40E9457
:105740001F02DC01CB018E0107531F4FBC01CD01AD
:105750000E944900DC01CB01F801918380831FC0C6
:10576000FE01E953FF4F88EC90E091838083FE01B6
:10577000E953FF4F808191810197F1F7FE01E953D1
:10578000FF4F91838083DE01A753BF4FFE01E75394
:10579000FF4F80819181019711969C938E93FE011A
:1057A000E753FF4F808191810097D1F627C08E018A
:1057B00007531F4FFE01E553FF4F608171818281C6
:1057C00093810E944900DC01CB01F8019183808321
:1057D000DE01AB53BF4FFE01E753FF4F8081918144
:1057E0008D939C93FE01EB53FF4F80819181019734
:1057F000F1F7FE01EB53FF4F9183808383E060E07C
:1058000040E00E94B21680E060E041E00E94B216E3
:1058100081E060E043E00E94B21682E060E04FE089
:105820000E94B21683E061E040E00E94B21680E080
:1058300061E041E00E94B21681E061E043E00E9435
:10584000B216FE01EF53FF4F80E090E0AAEFB3E401
:1058500080839183A283B3838E0103541F4FFE0183
:10586000EF53FF4F608171818281938120E030E0AE
:105870004AEF54E40E941F02DC01CB01F80180834F
:105880009183A283B383FE01E354FF4F6081718152
:105890008281938120E030E040E85FE30E94790359
:1058A000882344F4FE01E554FF4F81E090E09183AA
:1058B000808364C0FE01E354FF4F60817181828167
:1058C000938120E03FEF4FE757E40E941903181639
:1058D0000CF043C0FE01EF53FF4F60817181828164
:1058E000938120E030E040E251E40E941F02DC019D
:1058F000CB018E0105541F4FBC01CD010E94490010
:10590000DC01CB01F801918380831FC0FE01E754C5
:10591000FF4F88EC90E091838083FE01E754FF4FB6
:10592000808191810197F1F7FE01E754FF4F918348
:105930008083DE01A554BF4FFE01E554FF4F8081F7
:105940009181019711969C938E93FE01E554FF4F30
:10595000808191810097D1F627C08E0105541F4F99
:10596000FE01E354FF4F60817181828193810E9427
:105970004900DC01CB01F80191838083DE01A95449
:10598000BF4FFE01E554FF4F808191818D939C9321
:10599000FE01E954FF4F808191810197F1F7FE01EB
:1059A000E954FF4F9183808383E060E041E00E94EF
:1059B000B21680E060E042E00E94B21681E060E052
:1059C00043E00E94B21682E060E04FE00E94B2160F
:1059D00083E061E041E00E94B21680E061E042E0D5
:1059E0000E94B21681E061E043E00E94B21682E0BC
:1059F00061E04FE00E94B216FE01ED54FF4F80E0DF
:105A000090E0A8E4B3E480839183A283B3838E0102
:105A100001551F4FFE01ED54FF4F6081718182815E
:105A2000938120E030E04AEF54E40E941F02DC0141
:105A3000CB01F80180839183A283B383FE01E155FA
:105A4000FF4F608171818281938120E030E040E8E6
:105A50005FE30E947903882344F4FE01E355FF4F7E
:105A600081E090E09183808364C0FE01E155FF4FA7
:105A7000608171818281938120E03FEF4FE757E49D
:105A80000E94190318160CF043C0FE01ED54FF4F9D
:105A9000608171818281938120E030E040E251E4B5
:105AA0000E941F02DC01CB018E0103551F4FBC0178
:105AB000CD010E944900DC01CB01F8019183808374
:105AC0001FC0FE01E555FF4F88EC90E09183808375
:105AD000FE01E555FF4F808191810197F1F7FE01AD
