:100000000C942A000C9434000C9434000C943400AA
:100010000C9434000C9434000C9434000C94340090
:100020000C9434000C9434000C9434000C94340080
:100030000C9434000C9434000C9434000C94340070
:100040000C9434000C9434000C9434000C94340060
:100050000C94340011241FBECFE5D8E0DEBFCDBF25
:100060000E9436000C9442000C940000DF93CF9362
:10007000CDB7DEB7E4E3F0E08FEF8083E5E3F0E0B7
:080080001082FFCFF894FFCFBE
:00000001FF
