:100000000C942A000C9447000C945F0A0C9447004F
:100010000C9447000C9447000C9447000C94470044
:100020000C9447000C9447000C9447000C94470034
:100030000C9447000C9447000C9447000C94470024
:100040000C945B060C9447000C9447000C944700FA
:100050000C94470011241FBECFE5D8E0DEBFCDBF12
:1000600010E0A0E6B0E0EAEBF8E202C005900D92E5
:10007000A837B107D9F710E0A8E7B0E001C01D929A
:10008000A937B107E1F70E94BE130C945B140C94DE
:100090000000EF92FF920F931F937B018C0120E0F1
:1000A00030E040E05FE40E94490388238CF0C801FF
:1000B000B70120E030E040E05FE40E94C1010E940F
:1000C000A9039B01AC01205030404040504806C07D
:1000D000C801B7010E94A9039B01AC01B901CA0183
:1000E0001F910F91FF90EF900895A0E0B0E0EBE733
:1000F000F0E00C942414DC012B01FA019C91923065
:1001000008F439C1EB018881823008F433C194309E
:1001100069F4843009F02FC111969C91119789815F
:10012000981709F428C1AFE6B0E025C1843009F47E
:1001300021C18230A9F4923009F01DC19A01AD01AC
:1001400088E0EA010990AE01E90109929E0181501F
:10015000C1F7E201898111969C918923818308C1AD
:10016000923009F407C112962D903C901397EB0141
:100170008A819B811496AD90BD90CD90DC901797AD
:10018000EC80FD800E811F819101281B390BB90184
:1001900037FF04C066277727621B730B6032710537
:1001A0000CF061C0121613066CF537014801062EDB
:1001B00004C096948794779467940A94D2F721E0C8
:1001C00030E040E050E004C0220F331F441F551FB1
:1001D0006A95D2F721503040404050402E213F21B7
:1001E00040235123211531054105510521F021E01E
:1001F00030E040E050E079018A01E628F72808293C
:1002000019293CC0232BD1F1260E371E350146019A
:10021000062E04C096948794779467940A94D2F734
:1002200021E030E040E050E004C0220F331F441FC3
:10023000551F6A95D2F721503040404050402A2146
:100240003B214C215D21211531054105510521F04E
:1002500021E030E040E050E059016A01A628B728CB
:10026000C828D9280BC0821593052CF01C01AA249C
:10027000BB24650103C0EE24FF24870111969C91E5
:10028000D20111968C91981709F445C0992339F041
:10029000A80197012A193B094C095D0906C0A6016E
:1002A00095012E193F09400B510B57FD08C01182D3
:1002B0003382228224833583468357831DC081E0A5
:1002C00081833382228288279927DC01821B930B4A
:1002D000A40BB50B84839583A683B7830DC0220F2F
:1002E000331F441F551F24833583468357838281E0
:1002F000938101979383828324813581468157813D
:10030000DA01C9010197A109B1098F5F9F4FAF4F72
:10031000BF4328F30BC0918333822282EA0CFB1C7B
:100320000C1D1D1DE482F5820683178383E0808304
:10033000248135814681578157FF1AC0C901AA27F8
:1003400097FDA095BA2F81709070A070B0705695EF
:10035000479537952795822B932BA42BB52B848318
:100360009583A683B7838281938101969383828349
:10037000DF0101C0D201CD01CDB7DEB7E2E10C94BF
:100380004014A0E2B0E0E7ECF1E00C943014698393
:100390007A838B839C832D833E834F835887E9E048
:1003A000EE2EF12CEC0EFD1ECE010196B7010E943F
:1003B000D2048E010F5E1F4FCE010596B8010E9438
:1003C000D2048A8991E089278A8BC701B801AE01DE
:1003D000475E5F4F0E9475000E94FD03A096E6E015
:1003E0000C944C14A0E2B0E0E8EFF1E00C9430146F
:1003F00069837A838B839C832D833E834F835887C5
:10040000F9E0EF2EF12CEC0EFD1ECE010196B701A6
:100410000E94D2048E010F5E1F4FCE010596B801D7
:100420000E94D204C701B801AE01475E5F4F0E942F
:1004300075000E94FD03A096E6E00C944C14A0E227
:10044000B0E0E5E2F2E00C94241469837A838B83B4
:100450009C832D833E834F835887CE010196BE0136
:10046000675F7F4F0E94D204CE010596BE016F5E8A
:100470007F4F0E94D2049985923088F0898982301A
:10048000C8F0943019F4823051F404C0843029F457
:10049000923081F48FE690E0C6C0923049F420E0BB
:1004A0009A858A89981321E02A87CE010996BBC0D4
:1004B000823049F420E09A858A89981321E02A8BBA
:1004C000CE014196B0C02D843E844F8458886D88FB
:1004D0007E888F88988CEE24FF248701AA24BB2471
:1004E000650140E050E060E070E0E0E0F0E0C10174
:1004F00081709070892BE9F0E60CF71C081D191D1E
:100500009A01AB012A0D3B1D4C1D5D1D80E090E062
:10051000A0E0B0E0E614F7040805190520F481E036
:1005200090E0A0E0B0E0BA01A901480F591F6A1F8E
:100530007B1FAA0CBB1CCC1CDD1C97FE08C081E0F5
:1005400090E0A0E0B0E0A82AB92ACA2ADB2A3196B6
:10055000E032F10549F0660C771C881C991C569412
:10056000479437942794C3CFFA85EA892B893C892D
:100570008B859C85280F391F2E5F3F4F17C0CA01FE
:1005800081709070892B61F016950795F794E79428
:1005900080E090E0A0E0B0E8E82AF92A0A2B1B2BC3
:1005A00076956795579547952F5F3F4F77FDE7CF36
:1005B0000CC0440F551F661F771F17FD4160EE0CDE
:1005C000FF1C001F111F21503040403090E05907A0
:1005D00090E0690790E4790760F32B8F3C8FDB0193
:1005E000CA018F779070A070B07080349105A1051A
:1005F000B10561F447FD0AC0E114F10401051105DC
:1006000029F0405C5F4F6F4F7F4F40781A8EFE1786
:1006100011F081E08A8F4D8F5E8F6F8F78A383E01A
:10062000898FCE0149960E94FD03A096E2E10C94C9
:100630004014A8E1B0E0EFE1F3E00C9430146983DA
:100640007A838B839C832D833E834F83588789E0F5
:10065000E82EF12CEC0EFD1ECE010196B7010E9492
:10066000D2048E010F5E1F4FCE010596B8010E9485
:10067000D2048985823040F08989823028F0C70110
:10068000B8010E944A0501C08FEF6896E6E00C941D
:100690004C14A8E1B0E0EFE4F3E00C94301469836B
:1006A0007A838B839C832D833E834F83588789E095
:1006B000E82EF12CEC0EFD1ECE010196B7010E9432
:1006C000D2048E010F5E1F4FCE010596B8010E9425
:1006D000D2048985823040F08989823028F0C701B0
:1006E000B8010E944A0501C08FEF6896E6E00C94BD
:1006F0004C14A8E1B0E0EFE7F3E00C943014698308
:100700007A838B839C832D833E834F83588789E034
:10071000E82EF12CEC0EFD1ECE010196B7010E94D1
:10072000D2048E010F5E1F4FCE010596B8010E94C4
:10073000D2048985823040F08989823028F0C7014F
:10074000B8010E944A0501C081E06896E6E00C9479
:100750004C14ACE0B0E0EFEAF3E00C94341469839D
:100760007A838B839C83CE010196BE016B5F7F4FA2
:100770000E94D2048D81823061F1823050F1843048
:1007800021F48E81882351F12EC02F81388537FDC9
:1007900020C06E812F3131051CF06623F9F023C093
:1007A0008EE190E0821B930B29853A854B855C8511
:1007B00004C056954795379527958A95D2F76623B5
:1007C000B1F050954095309521953F4F4F4F5F4F79
:1007D0000EC020E030E040E050E009C02FEF3FEFD6
:1007E0004FEF5FE704C020E030E040E050E8B9019F
:1007F000CA012C96E2E00C945014DF92EF92FF9223
:100800000F931F93FC01E480F58006811781D1804E
:100810008081823048F480E090E0A0E1B0E0E82AF6
:10082000F92A0A2B1B2BA5C0843009F49FC0823003
:1008300021F4EE24FF24870105C0E114F104010531
:10084000110519F4E0E0F0E096C0628173819FEF3A
:10085000623879070CF05BC022E83FEF261B370BAC
:100860002A3131052CF020E030E040E050E02AC091
:10087000B801A701022E04C0769567955795479554
:100880000A94D2F781E090E0A0E0B0E004C0880FC5
:10089000991FAA1FBB1F2A95D2F70197A109B10979
:1008A0008E219F21A023B1230097A105B10521F03E
:1008B00081E090E0A0E0B0E09A01AB01282B392B59
:1008C0004A2B5B2BDA01C9018F779070A070B07052
:1008D00080349105A105B10539F427FF09C0205CDA
:1008E0003F4F4F4F5F4F04C0215C3F4F4F4F5F4F13
:1008F000E0E0F0E02030A0E03A07A0E04A07A0E402
:100900005A0710F0E1E0F0E079018A0127C0603871
:10091000710564F5FB01E158FF4FD801C7018F77DE
:100920009070A070B07080349105A105B10539F4C4
:10093000E7FE0DC080E490E0A0E0B0E004C08FE3EB
:1009400090E0A0E0B0E0E80EF91E0A1F1B1F17FFA1
:1009500005C016950795F794E794319687E01695AC
:100960000795F794E7948A95D1F705C0EE24FF2404
:100970008701EFEFF0E06E2F679566276795902F60
:100980009F77D794DD24D7948E2F8695492F462BB9
:10099000582F5D29B701CA011F910F91FF90EF9069
:1009A000DF900895FC01DB01408151812281622F9B
:1009B0006F7770E0221F2227221F9381892F880FD3
:1009C000822B282F30E0991F9927991F11969C930D
:1009D000119721153105A9F54115510561057105DD
:1009E00011F482E037C082E89FEF13969C938E93B8
:1009F00012979A01AB0167E0220F331F441F551F66
:100A00006A95D1F783E08C930DC0220F331F441FEA
:100A1000551F12968D919C911397019713969C9355
:100A20008E931297203080E0380780E0480780E4FA
:100A3000580758F314962D933D934D935C93179755
:100A400008952F3F310579F4411551056105710570
:100A500019F484E08C93089564FF03C081E08C93C3
:100A600012C01C9210C02F57304013963C932E9307
:100A7000129783E08C9387E0440F551F661F771F02
:100A80008A95D1F7706414964D935D936D937C9322
:100A9000179708951F93DC01FB019C91923008F495
:100AA00047C08081823008F443C0943051F41196DD
:100AB0001C91843099F58181682F70E0611B710968
:100AC0003FC0843021F0923031F48230B9F181811D
:100AD000882389F12DC011961C9111978230F1F075
:100AE00081811817D9F412962D913C911397828128
:100AF00093818217930794F028173907BCF0149656
:100B00008D919D910D90BC91A02D248135814681C0
:100B10005781281739074A075B0718F4112341F05A
:100B20000AC082179307A407B50740F4112319F0F0
:100B300061E070E005C06FEF7FEF02C060E070E041
:100B4000CB011F910895DF93CF93CDB7DEB7A7E216
:100B5000B0E0E7E2F0E0808180648C93A7E2B0E04F
:100B6000E7E2F0E080818F778C93A7E2B0E0E7E2E4
:100B7000F0E080818F7D8C93A6E2B0E0E6E2F0E0C9
:100B8000808180688C93A6E2B0E0E6E2F0E08081AC
:100B900080648C93A6E2B0E0E6E2F0E080818F7D95
:100BA0008C93A0E5B0E0E0E5F0E080818F7D8C9350
:100BB000A0E5B0E0E0E5F0E080818F7B8C93A0E5DC
:100BC000B0E0E0E5F0E080818F778C93A6E2B0E0C2
:100BD000E6E2F0E0808180628C93A6E2B0E0E6E29B
:100BE000F0E0808180688C93CF91DF910895DF934E
:100BF000CF930F92CDB7DEB78983A7E2B0E0E7E2EB
:100C0000F0E08081807E8C93A7E2B0E0E7E2F0E044
:100C100090818981892B8C93A6E2B0E0E6E2F0E036
:100C2000808180648C93E6E2F0E0808182958F7011
:100C3000882F90E0817090700097A9F3A6E2B0E051
:100C4000E6E2F0E0808180618C93E4E2F0E0808174
:100C500091810F90CF91DF910895DF93CF930F9201
:100C6000CDB7DEB78983A7E2B0E0E7E2F0E08081AC
:100C7000807E8C93A7E2B0E0E7E2F0E0908189818A
:100C8000892B8C93A6E2B0E0E6E2F0E080818064FC
:100C90008C930F90CF91DF910895DF93CF93CDB7D1
:100CA000DEB7A6E2B0E0E6E2F0E0808188608C93F7
:100CB000CF91DF9108951F920F920FB60F921124DA
:100CC0002F933F934F935F936F937F938F939F9354
:100CD000AF93BF93EF93FF93DF93CF9300D0CDB744
:100CE000DEB781E067E040E00E94290881E061E032
:100CF00040E00E94290881E060E040E00E9429086D
:100D00001A821982E4E2F0E080819181CC01A0E0B6
:100D1000B0E028E833E140E050E0BC01CD010E94A2
:100D2000E313DC01CB01072E7AE0B695A7959795E2
:100D300087957A95D1F7702D9A83898381E060E059
:100D40000E94BD1289819A81CC01A0E0B0E0BC0173
:100D5000CD010E94E11289819A8121E081399207B7
:100D600080F481E067E040E00E94290881E061E0D2
:100D700040E00E94290881E060E040E00E942908EC
:100D800053C089819A8121E081399207B0F089812D
:100D90009A8124E0813B920780F481E067E040E0A3
:100DA0000E94290881E061E040E00E94290881E07A
:100DB00060E041E00E94290837C089819A8124E0DF
:100DC000813B9207B0F089819A8129E0853C9207A6
:100DD00080F481E067E040E00E94290881E060E063
:100DE00040E00E94290881E061E041E00E9429087A
:100DF0001BC089819A8129E0853C9207A8F08981EE
:100E00009A8123E18838920778F481E067E041E035
:100E10000E94290881E060E040E00E94290881E00A
:100E200061E040E00E9429080F900F90CF91DF9180
:100E3000FF91EF91BF91AF919F918F917F916F91B2
:100E40005F914F913F912F910F900FBE0F901F9088
:100E50001895DF93CF93CDB7DEB727970FB6F894E9
:100E6000DEBF0FBECDBF89836A834B838B81813008
:100E700009F06FC08981282F30E03F832E838E8157
:100E80009F818130910549F12E813F8122303105CA
:100E90002CF48E819F81009761F0D2C02E813F811A
:100EA0002230310571F18E819F8183309105E9F106
:100EB000C7C0AAE3B0E0EAE3F0E08081482F8A816E
:100EC000282F30E081E090E0022E02C0880F991FA9
:100ED0000A94E2F7842B8C93B3C0A7E3B0E0E7E376
:100EE000F0E08081482F8A81282F30E081E090E077
:100EF000022E02C0880F991F0A94E2F7842B8C936C
:100F00009FC0A4E3B0E0E4E3F0E08081482F8A8151
:100F1000282F30E081E090E0022E02C0880F991F58
:100F20000A94E2F7842B8C938BC0A1E3B0E0E1E359
:100F3000F0E08081482F8A81282F30E081E090E026
:100F4000022E02C0880F991F0A94E2F7842B8C931B
:100F500077C08B81882309F073C08981282F30E006
:100F60003D832C838C819D818130910559F12C81A9
:100F70003D81223031052CF48C819D81009769F0F0
:100F80005FC02C813D812230310589F18C819D81AA
:100F90008330910509F440C053C0AAE3B0E0EAE30E
:100FA000F0E08081482F8A81282F30E081E090E0B6
:100FB000022E02C0880F991F0A94E2F780958423BD
:100FC0008C933EC0A7E3B0E0E7E3F0E08081482FD8
:100FD0008A81282F30E081E090E0022E02C0880F45
:100FE000991F0A94E2F7809584238C9329C0A4E387
:100FF000B0E0E4E3F0E08081482F8A81282F30E0E0
:1010000081E090E0022E02C0880F991F0A94E2F757
:10101000809584238C9314C0A1E3B0E0E1E3F0E079
:101020008081482F8A81282F30E081E090E0022ED5
:1010300002C0880F991F0A94E2F7809584238C934D
:1010400027960FB6F894DEBF0FBECDBFCF91DF91CC
:101050000895DF93CF93CDB7DEB727970FB6F894F7
:10106000DEBF0FBECDBF89836A834B838B81813006
:1010700009F06FC08981282F30E03F832E838E8155
:101080009F818130910549F12E813F8122303105C8
:101090002CF48E819F81009761F0D2C02E813F8118
:1010A0002230310571F18E819F8183309105E9F104
:1010B000C7C0ABE3B0E0EBE3F0E08081482F8A816A
:1010C000282F30E081E090E0022E02C0880F991FA7
:1010D0000A94E2F7842B8C93B3C0A8E3B0E0E8E372
:1010E000F0E08081482F8A81282F30E081E090E075
:1010F000022E02C0880F991F0A94E2F7842B8C936A
:101100009FC0A5E3B0E0E5E3F0E08081482F8A814D
:10111000282F30E081E090E0022E02C0880F991F56
:101120000A94E2F7842B8C938BC0A2E3B0E0E2E355
:10113000F0E08081482F8A81282F30E081E090E024
:10114000022E02C0880F991F0A94E2F7842B8C9319
:1011500077C08B81882309F073C08981282F30E004
:101160003D832C838C819D818130910559F12C81A7
:101170003D81223031052CF48C819D81009769F0EE
:101180005FC02C813D812230310589F18C819D81A8
:101190008330910509F440C053C0ABE3B0E0EBE30A
:1011A000F0E08081482F8A81282F30E081E090E0B4
:1011B000022E02C0880F991F0A94E2F780958423BB
:1011C0008C933EC0A8E3B0E0E8E3F0E08081482FD4
:1011D0008A81282F30E081E090E0022E02C0880F43
:1011E000991F0A94E2F7809584238C9329C0A5E384
:1011F000B0E0E5E3F0E08081482F8A81282F30E0DD
:1012000081E090E0022E02C0880F991F0A94E2F755
:10121000809584238C9314C0A2E3B0E0E2E3F0E075
:101220008081482F8A81282F30E081E090E0022ED3
:1012300002C0880F991F0A94E2F7809584238C934B
:1012400027960FB6F894DEBF0FBECDBFCF91DF91CA
:101250000895DF93CF9300D000D0CDB7DEB7898358
:101260006A838981282F30E03C832B838B819C818A
:1012700081309105D1F02B813C81223031052CF455
:101280008B819C81009761F01EC02B813C812230B4
:10129000310581F08B819C818330910581F013C0F1
:1012A000EAE3F0E08A8180830EC0E7E3F0E08A8120
:1012B000808309C0E4E3F0E08A81808304C0E1E335
:1012C000F0E08A8180830F900F900F900F90CF9164
:1012D000DF910895DF93CF9300D000D0CDB7DEB774
:1012E00089836A838981282F30E03C832B838B811B
:1012F0009C8181309105D1F02B813C8122303105D8
:101300002CF48B819C81009761F01EC02B813C8165
:101310002230310581F08B819C818330910581F0F1
:1013200013C0EBE3F0E08A8180830EC0E8E3F0E0D5
:101330008A81808309C0E5E3F0E08A81808304C06C
:10134000E2E3F0E08A8180830F900F900F900F907E
:10135000CF91DF910895DF93CF9300D000D00F920B
:10136000CDB7DEB78A836B838A81282F30E03D8337
:101370002C834C815D814130510541F18C819D81EF
:101380008230910534F42C813D812115310561F0C5
:1013900052C04C815D814230510551F18C819D815B
:1013A00083309105B9F147C0E9E3F0E08081282F4F
:1013B00030E08B81882F90E0A90102C055954795B8
:1013C0008A95E2F7CA018170898335C0E6E3F0E0CF
:1013D0008081282F30E08B81882F90E0A90102C006
:1013E000559547958A95E2F7CA018170898323C094
:1013F000E3E3F0E08081282F30E08B81882F90E0BC
:10140000A90102C0559547958A95E2F7CA018170F6
:10141000898311C0E0E3F0E08081282F30E08B81E8
:10142000882F90E0A90102C0559547958A95E2F76B
:10143000CA018170898389810F900F900F900F905E
:101440000F90CF91DF910895DF93CF93CDB7DEB7A3
:10145000ABE5B0E0EBE5F0E0808180688C93CF9164
:10146000DF910895DF93CF93CDB7DEB7ABE5B0E062
:10147000EBE5F0E080818F778C93CF91DF91089539
:10148000DF93CF93CDB7DEB783E063E040E00E9407
:10149000290783E063E041E00E942908A5E5B0E068
:1014A000E5E5F0E0808181608C93A5E5B0E0E5E5BD
:1014B000F0E0808182608C93CF91DF9108951F923C
:1014C0000F920FB60F9211242F933F934F935F9378
:1014D0006F937F938F939F93AF93BF93EF93FF93FC
:1014E000DF93CF93CDB7DEB72E97DEBFCDBF80E0C1
:1014F00060E041E00E94290880E090E0AAE7B5E4BE
:101500008B879C87AD87BE876B857C858D859E8507
:1015100020E030E04AEF54E40E941F02DC01CB01DE
:101520008F839887A987BA876F81788589859A85FF
:1015300020E030E040E85FE30E94790388232CF448
:1015400081E090E09E838D833FC06F81788589859F
:101550009A8520E03FEF4FE757E40E9419031816E1
:101560004CF56B857C858D859E8520E030E040E2E2
:1015700051E40E941F02DC01CB01BC01CD010E949D
:101580004900DC01CB019E838D830FC088EC90E085
:101590009C838B838B819C810197F1F79C838B8348
:1015A0008D819E8101979E838D838D819E81009781
:1015B00069F714C06F81788589859A850E944900F2
:1015C000DC01CB019E838D838D819E819A838983EB
:1015D00089819A810197F1F79A8389832E96DEBFDC
:1015E000CDBFCF91DF91FF91EF91BF91AF919F91CF
:1015F0008F917F916F915F914F913F912F910F90BC
:101600000FBE0F901F901895DF93CF93CDB7DEB725
:10161000AFE5B0E0EFE5F0E0808180688C93CF919A
:10162000DF910895DF93CF93CDB7DEB7AFE5B0E09C
:10163000EFE5F0E080818F7B8C93CF91DF9108956F
:10164000DF93CF93CDB7DEB7E8970FB6F894DEBF40
:101650000FBECDBF83E06FEF0E94290981E063E0F8
:1016600041E00E94290781E064E041E00E942907EF
:1016700081E065E041E00E94290780E090E0A8E475
:10168000B2E48DAB9EABAFABB8AF6DA97EA98FA90D
:1016900098AD20E030E04AEF54E40E941F02DC01E4
:1016A000CB0189AB9AABABABBCAB69A97AA98BA9CF
:1016B0009CA920E030E040E85FE30E9479038823A2
:1016C0002CF481E090E098AB8FA73FC069A97AA97C
:1016D0008BA99CA920E03FEF4FE757E40E94190334
:1016E00018164CF56DA97EA98FA998AD20E030E0C1
:1016F00040E251E40E941F02DC01CB01BC01CD019C
:101700000E944900DC01CB0198AB8FA70FC088EC89
:1017100090E09EA78DA78DA59EA50197F1F79EA7A6
:101720008DA78FA598A9019798AB8FA78FA598A98A
:10173000009769F714C069A97AA98BA99CA90E948E
:101740004900DC01CB0198AB8FA78FA598A99CA776
:101750008BA78BA59CA50197F1F79CA78BA780E28F
:101760000E94260D80E20E94260D80E80E94260D30
:1017700080E090E0A0E0B0E48FA398A7A9A7BAA763
:101780006FA178A589A59AA520E030E04AEF54E43E
:101790000E941F02DC01CB018BA39CA3ADA3BEA3BF
:1017A0006BA17CA18DA19EA120E030E040E85FE329
:1017B0000E94790388232CF481E090E09AA389A306
:1017C0003FC06BA17CA18DA19EA120E03FEF4FE720
:1017D00057E40E94190318164CF56FA178A589A546
:1017E0009AA520E030E040E251E40E941F02DC01B3
:1017F000CB01BC01CD010E944900DC01CB019AA3C1
:1018000089A30FC088EC90E098A38F8F8F8D98A14B
:101810000197F1F798A38F8F89A19AA101979AA3B5
:1018200089A389A19AA1009769F714C06BA17CA133
:101830008DA19EA10E944900DC01CB019AA389A33E
:1018400089A19AA19E8F8D8F8D8D9E8D0197F1F725
:101850009E8F8D8F80E00E94260D80EC0E94260DC9
:1018600080E090E0A0E8BFE3898F9A8FAB8FBC8FB8
:10187000698D7A8D8B8D9C8D20E030E04AEF54E4A9
:101880000E941F02DC01CB018D8B9E8BAF8BB88F2A
:101890006D897E898F89988D20E030E040E85FE394
:1018A0000E94790388232CF481E090E09C8B8B8B41
:1018B0003FC06D897E898F89988D20E03FEF4FE78B
:1018C00057E40E94190318164CF5698D7A8D8B8D9B
:1018D0009C8D20E030E040E251E40E941F02DC01D8
:1018E000CB01BC01CD010E944900DC01CB019C8BE6
:1018F0008B8B0FC088EC90E09A8B898B89899A89B1
:101900000197F1F79A8B898B8B899C8901979C8B26
:101910008B8B8B899C89009769F714C06D897E89B0
:101920008F89988D0E944900DC01CB019C8B8B8BA9
:101930008B899C89988B8F878F8598890197F1F780
:10194000988B8F8780E00E94260D80E10E94260DF3
:1019500080E090E0A0E0B0E48B879C87AD87BE87F5
:101960006B857C858D859E8520E030E04AEF54E4D0
:101970000E941F02DC01CB018F839887A987BA8759
:101980006F81788589859A8520E030E040E85FE3C3
:101990000E94790388232CF481E090E09E838D835C
:1019A0003FC06F81788589859A8520E03FEF4FE7BA
:1019B00057E40E94190318164CF56B857C858D85BC
:1019C0009E8520E030E040E251E40E941F02DC01ED
:1019D000CB01BC01CD010E944900DC01CB019E83FB
:1019E0008D830FC088EC90E09C838B838B819C81DE
:1019F0000197F1F79C838B838D819E8101979E8354
:101A00008D838D819E81009769F714C06F817885E1
:101A100089859A850E944900DC01CB019E838D83D4
:101A20008D819E819A83898389819A810197F1F7BB
:101A30009A83898381E080937800E8960FB6F894C2
:101A4000DEBF0FBECDBFCF91DF9108950F931F93DF
:101A5000DF93CF93CDB7DEB7C754D0400FB6F8941D
:101A6000DEBF0FBECDBFFE01E95BFF4F808381E08B
:101A700063E040E00E94290881E064E040E00E94C9
:101A80002908FE01E95BFF4F808182958F70982FB6
:101A9000917083E064E0492F0E942908FE01E95B10
:101AA000FF4F8081829586958770982F917083E093
:101AB00065E0492F0E942908FE01E95BFF4F808104
:101AC0008295869586958370982F917083E066E065
:101AD000492F0E942908FE01E95BFF4F8081982F62
:101AE000991F9927991F83E067E0492F0E942908D1
:101AF00081E065E041E00E942908FE01ED5BFF4FB7
:101B000080E090E0A0E8BFE380839183A283B38369
:101B10008E01015C1F4FFE01ED5BFF4F6081718103
:101B20008281938120E030E04AEF54E40E941F025A
:101B3000DC01CB01F80180839183A283B383FE0192
:101B4000FF96608171818281938120E030E040E8DE
:101B50005FE30E94790388232CF481E090E09EAF3C
:101B60008DAF46C0FE01FF966081718182819381B5
:101B700020E03FEF4FE757E40E941903181664F581
:101B8000FE01ED5BFF4F608171818281938120E0D6
:101B900030E040E251E40E941F02DC01CB01BC01B5
:101BA000CD010E944900DC01CB019EAF8DAF0FC07B
:101BB00088EC90E09CAF8BAF8BAD9CAD0197F1F7BB
:101BC0009CAF8BAF8DAD9EAD01979EAF8DAF8DADB0
:101BD0009EAD009769F716C0FE01FF966081718186
:101BE000828193810E944900DC01CB019EAF8DAFC1
:101BF0008DAD9EAD9AAF89AF89AD9AAD0197F1F7E2
:101C00009AAF89AF81E065E040E00E94290880E05A
:101C100090E0A0E8BFE38DAB9EABAFABB8AF6DA9D2
:101C20007EA98FA998AD20E030E04AEF54E40E94ED
:101C30001F02DC01CB0189AB9AABABABBCAB69A992
:101C40007AA98BA99CA920E030E040E85FE30E94DC
:101C5000790388232CF481E090E098AB8FA73FC0F4
:101C600069A97AA98BA99CA920E03FEF4FE757E427
:101C70000E94190318164CF56DA97EA98FA998AD7D
:101C800020E030E040E251E40E941F02DC01CB0181
:101C9000BC01CD010E944900DC01CB0198AB8FA7AC
:101CA0000FC088EC90E09EA78DA78DA59EA50197FB
:101CB000F1F79EA78DA78FA598A9019798AB8FA73D
:101CC0008FA598A9009769F714C069A97AA98BA96B
:101CD0009CA90E944900DC01CB0198AB8FA78FA57E
:101CE00098A99CA78BA78BA59CA50197F1F79CA70A
:101CF0008BA780917800882309F420C1FE01E95B5D
:101D0000FF4F8081982F917083E064E0492F0E94FB
:101D10002908FE01E95BFF4F80818695982F91701D
:101D200083E065E0492F0E942908FE01E95BFF4F2F
:101D3000808186958695982F917083E066E0492F83
:101D40000E942908FE01E95BFF4F808186958695F8
:101D50008695982F917083E067E0492F0E942908AB
:101D600081E065E041E00E94290880E090E0A0E881
:101D7000BFE38FA398A7A9A7BAA76FA178A589A544
:101D80009AA520E030E04AEF54E40E941F02DC01F3
:101D9000CB018BA39CA3ADA3BEA36BA17CA18DA102
:101DA0009EA120E030E040E85FE30E9479038823B1
:101DB0002CF481E090E09AA389A33FC06BA17CA1A1
:101DC0008DA19EA120E03FEF4FE757E40E94190349
:101DD00018164CF56FA178A589A59AA520E030E0EA
:101DE00040E251E40E941F02DC01CB01BC01CD01A5
:101DF0000E944900DC01CB019AA389A30FC088ECA3
:101E000090E098A38F8F8F8D98A10197F1F798A3F9
:101E10008F8F89A19AA101979AA389A389A19AA1D9
:101E2000009769F714C06BA17CA18DA19EA10E94AF
:101E30004900DC01CB019AA389A389A19AA19E8FB5
:101E40008D8F8D8D9E8D0197F1F79E8F8D8F81E007
:101E500065E040E00E94290880E090E0A0E8BFE350
:101E6000898F9A8FAB8FBC8F698D7A8D8B8D9C8D6E
:101E700020E030E04AEF54E40E941F02DC01CB0175
:101E80008D8B9E8BAF8BB88F6D897E898F89988D56
:101E900020E030E040E85FE30E94790388232CF4DF
:101EA00081E090E09C8B8B8B3FC06D897E898F8910
:101EB000988D20E03FEF4FE757E40E941903181672
:101EC0004CF5698D7A8D8B8D9C8D20E030E040E261
:101ED00051E40E941F02DC01CB01BC01CD010E9434
:101EE0004900DC01CB019C8B8B8B0FC088EC90E010
:101EF0009A8B898B89899A890197F1F79A8B898BBB
:101F00008B899C8901979C8B8B8B8B899C890097F3
:101F100069F714C06D897E898F89988D0E94490068
:101F2000DC01CB019C8B8B8B8B899C89988B8F8759
:101F30008F8598890197F1F7988B8F8780E090E0E3
:101F4000A0E0B0E48B879C87AD87BE876B857C85DE
:101F50008D859E8520E030E04AEF54E40E941F0208
:101F6000DC01CB018F839887A987BA876F81788539
:101F700089859A8520E030E040E85FE30E9479039C
:101F800088232CF481E090E09E838D833FC06F8195
:101F9000788589859A8520E03FEF4FE757E40E94D6
:101FA000190318164CF56B857C858D859E8520E080
:101FB00030E040E251E40E941F02DC01CB01BC0191
:101FC000CD010E944900DC01CB019E838D830FC0AF
:101FD00088EC90E09C838B838B819C810197F1F747
:101FE0009C838B838D819E8101979E838D838D81C0
:101FF0009E81009769F714C06F81788589859A85DD
:102000000E944900DC01CB019E838D838D819E81DE
:102010009A83898389819A810197F1F79A838983C9
:10202000C95BDF4F0FB6F894DEBF0FBECDBFCF91B7
:10203000DF911F910F910895DF93CF93CDB7DEB756
:10204000AB970FB6F894DEBF0FBECDBF8BA781E074
:1020500063E041E00E94290881E064E040E00E94E2
:1020600029088BA582958F70982F917083E064E08A
:10207000492F0E9429088BA5829586958770982FF5
:10208000917083E065E0492F0E9429088BA5829515
:10209000869586958370982F917083E066E0492F2E
:1020A0000E9429088BA5982F991F9927991F83E0D3
:1020B00067E0492F0E94290881E065E041E00E9425
:1020C000290880E090E0A0E8BFE38FA398A7A9A724
:1020D000BAA76FA178A589A59AA520E030E04AEFBC
:1020E00054E40E941F02DC01CB018BA39CA3ADA38F
:1020F000BEA36BA17CA18DA19EA120E030E040E8B1
:102100005FE30E94790388232CF481E090E09AA396
:1021100089A33FC06BA17CA18DA19EA120E03FEFD0
:102120004FE757E40E94190318164CF56FA178A5E4
:1021300089A59AA520E030E040E251E40E941F0208
:10214000DC01CB01BC01CD010E944900DC01CB01C7
:102150009AA389A30FC088EC90E098A38F8F8F8DEE
:1021600098A10197F1F798A38F8F89A19AA1019760
:102170009AA389A389A19AA1009769F714C06BA1BA
:102180007CA18DA19EA10E944900DC01CB019AA3F4
:1021900089A389A19AA19E8F8D8F8D8D9E8D019788
:1021A000F1F79E8F8D8F81E065E040E00E94290865
:1021B0008BA5982F917083E064E0492F0E94290835
:1021C0008BA58695982F917083E065E0492F0E943A
:1021D00029088BA586958695982F917083E066E0F7
:1021E000492F0E9429088BA5869586958695982F5C
:1021F000917083E067E0492F0E94290881E065E043
:1022000041E00E94290880E090E0A0E8BFE3898FC8
:102210009A8FAB8FBC8F698D7A8D8B8D9C8D20E0D2
:1022200030E04AEF54E40E941F02DC01CB018D8BA9
:102230009E8BAF8BB88F6D897E898F89988D20E0BA
:1022400030E040E85FE30E94790388232CF481E0CA
:1022500090E09C8B8B8B3FC06D897E898F89988D98
:1022600020E03FEF4FE757E40E94190318164CF5A2
:10227000698D7A8D8B8D9C8D20E030E040E251E4B9
:102280000E941F02DC01CB01BC01CD010E9449006C
:10229000DC01CB019C8B8B8B0FC088EC90E09A8B80
:1022A000898B89899A890197F1F79A8B898B8B8918
:1022B0009C8901979C8B8B8B8B899C89009769F7F4
:1022C00014C06D897E898F89988D0E944900DC0138
:1022D000CB019C8B8B8B8B899C89988B8F878F856F
:1022E00098890197F1F7988B8F8781E065E040E04E
:1022F0000E94290880E090E0A0E0B0E48B879C87F2
:10230000AD87BE876B857C858D859E8520E030E01E
:102310004AEF54E40E941F02DC01CB018F839887AF
:10232000A987BA876F81788589859A8520E030E012
:1023300040E85FE30E94790388232CF481E090E079
:102340009E838D833FC06F81788589859A8520E043
:102350003FEF4FE757E40E94190318164CF56B85C1
:102360007C858D859E8520E030E040E251E40E942E
:102370001F02DC01CB01BC01CD010E944900DC0140
:10238000CB019E838D830FC088EC90E09C838B8370
:102390008B819C810197F1F79C838B838D819E813A
:1023A00001979E838D838D819E81009769F714C06C
:1023B0006F81788589859A850E944900DC01CB016F
:1023C0009E838D838D819E819A83898389819A8161
:1023D0000197F1F79A838983AB960FB6F894DEBF25
:1023E0000FBECDBFCF91DF910895DF93CF9300D083
:1023F00000D000D0CDB7DEB79C838B836D834E8336
:102400008D816E810E94BD121A8219828AC08D81CF
:10241000882F90E0AC0142955295507F5427407F21
:1024200054278E81282F30E08A81882F90E0820FF8
:10243000931F840F951F8031910594F4898188231F
:1024400079F48A81282F30E08B819C81FC01E20F96
:10245000F31F80810E941C108A818F5F8A8361C074
:102460008D81882F90E0AC0142955295507F542782
:10247000407F54278E81282F30E08A81882F90E07A
:10248000820F931F840F951F8031910514F18D8168
:10249000882F90E0AC0142955295507F5427407FA1
:1024A00054278E81282F30E08A81882F90E0820F78
:1024B000931F840F951F803291055CF489818823D6
:1024C00041F481E06E810E94BD1289818F5F898312
:1024D00028C08D81882F90E0AC0142955295507FA5
:1024E0005427407F54278E81282F30E08A81882FFF
:1024F00090E0820F931F840F951F803291058CF41A
:102500008981813071F48A81282F30E08B819C8110
:10251000FC01E20FF31F80810E941C108A818F5FF3
:102520008A838A81282F30E08B819C81FC01E20F15
:10253000F31F80818823C1F08D81882F90E0AC014A
:1025400042955295507F5427407F54278E81282FE3
:1025500030E08A81882F90E0820F931F840F951FAF
:10256000803291050CF453CF26960FB6F894DEBF57
:102570000FBECDBFCF91DF910895DF93CF9300D0F1
:102580000F92CDB7DEB78A836B838A81882F90E064
:102590000024969587950794969587950794982F8C
:1025A000802D982F8B81890F898389818068898309
:1025B00089810E94260D0F900F900F90CF91DF918F
:1025C0000895DF93CF93CDB7DEB768970FB6F89431
:1025D000DEBF0FBECDBF6D8B7E8B8F8B988F1F8222
:1025E000188619861A861E821D8219821A821B82FB
:1025F0001C8245C08D899E89AF89B88D2AE030E064
:1026000040E050E0BC01CD010E940214DC01CB018E
:1026100089839A83AB83BC832D813E814981CE011E
:102620000B96FC01E20FF31F40838D899E89AF89D1
:10263000B88D2AE030E040E050E0BC01CD010E94BE
:102640000214DA01C9018D8B9E8BAF8BB88F8D81FF
:102650009E8101969E838D838F819885A985BA85F9
:102660000196A11DB11D8F839887A987BA878D898F
:102670009E89AF89B88D0097A105B10549F08D8974
:102680009E89AF89B88D0097A105B10509F0B2CF39
:102690008F8198859E838D8313C08D819E819C013F
:1026A00021503040CE010B96FC01E20FF31F8081D8
:1026B000805D0E941C108D819E8101979E838D8379
:1026C0008D819E81009749F768960FB6F894DEBF1A
:1026D0000FBECDBFCF91DF910895DF93CF9300D090
:1026E00000D00F92CDB7DEB79C838B836D838D8135
:1026F000883018F58D81882F90E0880F991F880FFA
:10270000991F880F991F8A838A8180648A838A81AE
:102710000E94260D19820EC08981282F30E08B81FE
:102720009C81FC01E20FF31F80810E941C108981B3
:102730008F5F89838981883078F382E00E94260D3B
:102740000F900F900F900F900F90CF91DF91089501
:10275000DF93CF9300D00F92CDB7DEB789836A8322
:102760004B838A816B810E94BD1289810E941C105B
:102770000F900F900F90CF91DF910895DF93CF933B
:10278000CDB7DEB70E94200B80E690E060E040E02D
:102790000E94F5110E94040B0E94A30581E060E0F5
:1027A00041E00E94290781E061E041E00E942907A1
:1027B00081E067E041E00E9429070E944D0680E029
:1027C0000E942D06FFCF629FD001739FF001829F70
:1027D000E00DF11D649FE00DF11D929FF00D839FB0
:1027E000F00D749FF00D659FF00D9927729FB00D4D
:1027F000E11DF91F639FB00DE11DF91FBD01CF0160
:1028000011240895A1E21A2EAA1BBB1BFD010DC0C5
:10281000AA1FBB1FEE1FFF1FA217B307E407F50790
:1028200020F0A21BB30BE40BF50B661F771F881F6C
:10283000991F1A9469F760957095809590959B0102
:10284000AC01BD01CF0108952F923F924F925F924C
:102850006F927F928F929F92AF92BF92CF92DF92B0
:10286000EF92FF920F931F93CF93DF93CDB7DEB715
:10287000CA1BDB0B0FB6F894DEBF0FBECDBF0994A9
:102880002A88398848885F846E847D848C849B8400
:10289000AA84B984C884DF80EE80FD800C811B810E
:1028A000AA81B981CE0FD11D0FB6F894DEBF0FBE3D
:0A28B000CDBFED010895F894FFCFAD
:1028BA00616E616C6F67207369676E616C3A0000C4
:0828CA00000000000000000006
:00000001FF
