:100000000C942A000C943F000C943F000C943F0089
:100010000C943F000C943F000C943F000C943F0064
:100020000C943F000C943F000C943F000C943F0054
:100030000C943F000C943F000C943F000C943F0044
:100040000C943F000C943F000C943F000C943F0034
:100050000C943F0011241FBECFE5D8E0DEBFCDBF1A
:1000600010E0A0E6B0E0ECEAF1E002C005900D92ED
:10007000A037B107D9F70E9441000C94D4000C942A
:1000800000008F929F92AF92BF92DF92EF92FF9209
:100090000F931F93DF93CF93CDB7DEB72C970FB697
:1000A000F894DEBF0FBECDBF4E010894811C911C99
:1000B000C40165E370E044E350E020E000E00E940A
:1000C000930097E0E92EF12CEC0EFD1EC7016BE3C7
:1000D00070E04AE350E020E00E94930000E010E06E
:1000E00088ECA82EB12CDE2CEF2C1BC0C4016F2D88
:1000F0000E94A00084EC99E0F5013197F1F7019797
:10010000D9F7F3948AE0F81689F78D2D9E2D602F8C
:100110000E94A0000F5F1F4F0A30110514F000E08D
:1001200010E0FF24E3CF0F93FC01DA0171836083B9
:10013000538342838FEF8C93248305830F9108951B
:10014000CF93DF93DC01603108F06FE014968C915F
:100150001497CD91DC911197E62FF0E0882329F4D4
:10016000E05AFF4F8081809503C0E05AFF4F8081A5
:10017000888315966C93DF91CF910895FC0165817A
:100180006F5F658361500E94A0000895FC01658146
:10019000615065836F5F0E94A0000895FC01158285
:0C01A00060E00E94A0000895F894FFCFDA
:1001AC003F065B4F666D7D077F6F777C5C5E797178
:00000001FF
